:020000040800F2
:1000000000C000204D06000899040008A70400085D
:10001000AD040008B3040008B904000800000000A3
:10002000000000000000000000000000BF04000805
:10003000CD04000800000000DB040008E90400080B
:100040009D0600089D0600089D0600089D06000804
:100050009D0600089D0600089D0600089D060008F4
:100060009D0600089D0600089D0600089D060008E4
:100070009D0600089D0600089D0600089D060008D4
:100080009D0600089D0600089D0600089D060008C4
:100090009D0600089D0600089D0600089D060008B4
:1000A0009D0600089D0600089D0600089D060008A4
:1000B0009D06000800000000000000009D060008EA
:1000C0009D0600089D0600089D0600089D06000884
:1000D0009D0600089D0600089D0600089D06000874
:1000E0009D0600089D0600080000000000000000BA
:1000F0000000000000000000000000000000000000
:10010000000000009D060008000000009D06000899
:100110000000000000000000850400089D060008A3
:100120009D0600089D0600089D0600089D06000823
:100130009D06000800000000000000000000000014
:100140009D0600089D0600089D0600089D06000803
:100150009D0600089D0600089D0600089D060008F3
:100160009D0600089D0600089D060008000000008E
:100170009D0600089D0600089D060008000000007E
:0C0180009D0600089D0600089D06000872
:10018C0010B5054C237833B9044B13B10448AFF3C5
:10019C0000800123237010BD00000020000000002F
:1001AC00E806000808B5034B1BB103490348AFF33D
:1001BC00008008BD0000000004000020E8060008D4
:1001CC0080B400AF044B1B680133034A136000BFBB
:1001DC00BD465DF8047B70471C00002080B582B0E2
:1001EC0000AF78607B681B681B6903F00203022B6D
:1001FC0022D17B681B68DB6803F00203022B1BD146
:10020C007B681B686FF002021A617B6801221A7707
:10021C007B681B689B6903F00303002B03D0786891
:10022C0000F0EEF805E0786800F0E0F8786800F08F
:10023C00F1F87B6800221A777B681B681B6903F056
:10024C000403042B22D17B681B68DB6803F00403D6
:10025C00042B1BD17B681B686FF004021A617B684E
:10026C0002221A777B681B689B6903F44073002B8E
:10027C0003D0786800F0C4F805E0786800F0B6F8B0
:10028C00786800F0C7F87B6800221A777B681B68D7
:10029C001B6903F00803082B22D17B681B68DB6801
:1002AC0003F00803082B1BD17B681B686FF0080256
:1002BC001A617B6804221A777B681B68DB6903F080
:1002CC000303002B03D0786800F09AF805E07868F7
:1002DC0000F08CF8786800F09DF87B6800221A77A3
:1002EC007B681B681B6903F01003102B22D17B6801
:1002FC001B68DB6803F01003102B1BD17B681B6899
:10030C006FF010021A617B6808221A777B681B68F1
:10031C00DB6903F44073002B03D0786800F070F8AD
:10032C0005E0786800F062F8786800F073F87B6894
:10033C0000221A777B681B681B6903F00103012BF1
:10034C000ED17B681B68DB6803F00103012B07D11E
:10035C007B681B686FF001021A61786800F082F804
:10036C007B681B681B6903F08003802B0ED17B68B4
:10037C001B68DB6803F08003802B07D17B681B684C
:10038C006FF080021A61786800F062F87B681B6875
:10039C001B6903F04003402B0ED17B681B68DB68A4
:1003AC0003F04003402B07D17B681B686FF04002C1
:1003BC001A61786800F038F87B681B681B6903F0D9
:1003CC002003202B0ED17B681B68DB6803F0200315
:1003DC00202B07D17B681B686FF020021A617868AC
:1003EC0000F02CF800BF0837BD4680BD80B483B048
:1003FC0000AF786000BF0C37BD465DF8047B7047DA
:10040C0080B483B000AF786000BF0C37BD465DF898
:10041C00047B704780B483B000AF786000BF0C37AA
:10042C00BD465DF8047B704780B483B000AF786044
:10043C0000BF0C37BD465DF8047B704780B483B0B9
:10044C0000AF786000BF0C37BD465DF8047B704789
:10045C0080B483B000AF786000BF0C37BD465DF848
:10046C00047B704780B582B000AF7860FFF7A8FEC0
:10047C0000BF0837BD4680BD80B500AF0248FFF70E
:10048C00ADFE00BF80BD00BF2000002080B400AFD7
:10049C0000BFBD465DF8047B704780B400AFFEE73B
:1004AC0080B400AFFEE780B400AFFEE780B400AFCD
:1004BC00FEE780B400AF00BFBD465DF8047B70471B
:1004CC0080B400AF00BFBD465DF8047B704780B4BC
:1004DC0000AF00BFBD465DF8047B704780B400AF31
:1004EC0000BFBD465DF8047B704780B489B000AF97
:1004FC00F860B9607A60FB681A68BB687B617B69DD
:10050C0093FAA3F33B613B69B3FA83F35B000321DA
:10051C0001FA03F3DB431A40BB68FB61FB6993FAF6
:10052C00A3F3BB61BB69B3FA83F35B00796801FA8F
:10053C0003F31A43FB681A6000BF2437BD465DF80D
:10054C00047B704780B483B000AF786039607B68FF
:10055C005A693B685A407B685A6100BF0C37BD46EC
:10056C005DF8047B7047000080B582B000AF00F0EE
:10057C0013F84FF480710748FFF7E4FF00237B600A
:10058C0002E07B6801337B607B684CF24F32934214
:10059C00F7D9EEE70004004880B582B000AF0B4AF3
:1005AC000A4BDB6C43F00203D364084BDB6C03F0A7
:1005BC0002037B607B6801224FF480710448FFF7D3
:1005CC0094FF00BF0837BD4680BD00BF001002403D
:1005DC000004004880B400AF174A174BD3F888309A
:1005EC0043F47003C2F88830144A144B1B6843F070
:1005FC0001031360114B00229A60104A0F4B1B68C9
:10060C0023F0A85323F4102313600C4B4FF48052A7
:10061C00DA600A4A094B1B6823F480231360074BEA
:10062C0000229A61044B4FF000629A6000BFBD46F5
:10063C005DF8047B704700BF00ED00E00010024045
:10064C00DFF834D0002103E00C4B5B5843500431ED
:10065C000B480C4B42189A42F6D30B4A02E000238B
:10066C0042F8043B094B9A42F9D3FFF7B3FF00F071
:10067C0011F8FFF779FFFEE700C00020080700081B
:10068C00000000200000002000000020600000207E
:10069C00FEE7000070B50D4E0D4CA41BA4100025F8
:1006AC00A54209D10B4E0C4C00F018F8A41BA41059
:1006BC000025A54205D170BD56F825309847013567
:1006CC00EEE756F8253098470135F2E700070008A9
:1006DC00000700080007000804070008F8B500BF71
:1006EC00F8BC08BC9E467047F8B500BFF8BC08BC07
:0406FC009E4670475F
:04070000B10100083B
:040704008D0100085B
:040000050800064D9C
:00000001FF
