:100000000000042079030000610300006303000086
:1000100065030000670300006903000000000000A2
:100020000000000000000000000000006B03000062
:100030006D030000000000006F030000710300006A
:1000400073030000730300007D07000073030000CA
:1000500073030000730300007303000073030000C8
:1000600073030000730300007303000073030000B8
:1000700073030000730300007303000073030000A8
:100080007303000073030000730300007303000098
:100090007303000073030000730300007303000088
:1000A0007303000073030000730300007303000078
:1000B0007303000073030000000000000000000054
:1000C0007303000073030000730300007303000058
:1000D0007303000073030000730300007303000048
:1000E00073030000730300007303000000000000AE
:1000F0000000000073030000000000007303000014
:1001000000000000000000000000000000000000EF
:1001100000000000000000000000000000000000DF
:1001200000000000000000000000000000000000CF
:1001300000000000000000000000000000000000BF
:1001400000000000000000000000000000000000AF
:10015000000000000000000000000000000000009F
:10016000000000000000000000000000000000008F
:10017000000000000000000000000000000000007F
:10018000000000000000000000000000000000006F
:10019000000000000000000000000000000000005F
:1001A000000000000000000000000000000000004F
:1001B000000000000000000000000000000000003F
:1001C000000000000000000000000000000000002F
:1001D000000000000000000000000000000000001F
:1001E000000000000000000000000000000000000F
:1001F00000000000000000000000000000000000FF
:10020000364937480A1A02D0072291438D463549AC
:1002100035480A1A06D00722914381F30988022241
:1002200082F3148831483249324A00F045F83248A6
:100230003249334A00F040F832483349334A00F03B
:100240003BF833483349344A00F036F833483449F0
:10025000344A00F031F834483449354A00F02CF87B
:1002600034483549354A00F027F8354835490022E9
:1002700000F02DF834483549002200F028F83448C1
:100280003449091A082903DB0022026004300160A6
:10029000314A90471F482049884205D002680430FF
:1002A00003B4904703BCF7E700208646EC460020E5
:1002B00000212A4A9047FEE7884207D0521A05D00B
:1002C000037801300B700131013AF9D1704788424F
:1002D00002D002700130FAE77047000000000420ED
:1002E00000E003200000042000000420AC0B00000C
:1002F000080000200C000020D8030000D8030000F4
:10030000640B0000AC0B0000080000200800002077
:10031000640B0000640B0000640B0000640B000021
:10032000640B0000640B0000640B0000640B000011
:10033000AA0B0000B00B00000C0000200C000020F5
:100340000C00002030000020300000203000002091
:100350003000002030200020A1030000950800009C
:10036000FEE7FEE7FEE7FEE7FEE7FEE7FEE7FEE765
:10037000FEE7FEE7704700BF1048804710484FF087
:100380000701884385460F4880470F48016841F4BC
:1003900070010160BFF34F8FBFF36F8FFFF730BF66
:1003A0000A480B490B4A884207D0521A05D00378F5
:1003B00001300B700131013AF9D17047750300002B
:1003C00000000420AD09000088ED00E0640B00008F
:0803D0000800002008000020D5
:1003D800074B1B5C1F2B86BF03F01F0305494FF01B
:1003E800A041012202FA03F3C1F80835704700BFA3
:1003F800640B00000003005008B50020FFF7E8FF79
:100408000120FFF7E5FF0220FFF7E2FF0320BDE828
:100418000840FFF7DDBF0000C10710B5044642D50C
:100428004FF08043D3F84036DA072ED54FF010232B
:10043800D3F8043303F00703072B26D11D4B012201
:10044800C3F80425D3F80024002AFBD04FF010216C
:10045800D1F8042322F0070242F00402C1F8042371
:100468000022C3F80425134AD2F80034002BFBD02D
:10047800BFF34F8F1049114BCA6802F4E06213436F
:10048800CB60BFF34F8F00BFFDE74FF0A0420C4990
:100498000323C2F81837C2F82037C1F82437C2F846
:1004A8003037FFF7A9FFA30742BF054B0C22C3F85B
:1004B800182710BD00E0014000ED00E00400FA0537
:1004C800000300501FB50021039001AA44F2010067
:1004D800CDE9011100F004F805B05DF804FB000057
:1004E80072B6094B1B68DB0700D500BEBFF34F8F00
:1004F8000649074BCA6802F4E0621343CB60BFF3B6
:100508004F8F00BFFDE700BFF0ED00E000ED00E019
:100518000400FA050023435082B043580193019B1D
:1005280002B070471FB501238DF80030044BCDE9A8
:100538000110D3E900126846904705B05DF804FB46
:100548000C0000202DE9F843634E04790546242069
:1005580000FB0460914690F82000002840F0B98024
:100568000F687A1C13D01F2F87BF07F01F035B4843
:100578003B464FF0A0404FF0010C0CFA03FC03F58A
:10058800E073C0F808C54FF0030C40F823C0486872
:10059800431C0ED01F288BBF00F01F030346DFF853
:1005A8003CC14FF0A04C03F5E0734FF0000E4CF83F
:1005B80023E091F814E091F815C02B688A69C3F814
:1005C80024254EEA0C0CBEF1010FC3F86CC5C3F824
:1005D8000C75C3F814052DD18868471C0ED01F2848
:1005E8008BBF00F01F070746DFF8F0C04FF0A04CA4
:1005F80007F5E0774FF0000E4CF827E0CF687A1C3B
:1006080014D01F2F87BF07F01F0CDFF8D0E0BC46BF
:100618004FF0A04E4FF0010808FA0CF80CF5E07CFA
:10062800CEF808854FF003084EF82C80C3F80875FB
:10063800C3F8100524236343F018C0F80490086930
:10064800F050B9F1000F34D00F7F28684FF488714B
:10065800FFF760FF4FF490712868FFF75BFF4FF4D6
:1006680092712868FFF756FF28684FF4A271FFF7C8
:1006780051FF2A681A4BC2F80433120B51B20029F1
:10068800A8BF01F160404FEA4713BABF154802F00E
:100698000F0700F56140DBB2B4BFC35580F80033E3
:1006A80002F01F02012303FA02F249090E4B43F834
:1006B80021202B680822C3F80025242303FB0463A8
:1006C8000020C3E906000122586183F82020BDE814
:1006D800F8830820FBE700BF0C000020000300504F
:1006E8001003020014ED00E000E100E001F06043B7
:1006F800B3F1005F2DE9F041074632D11C4B067972
:10070800242505FB063598466C6964BB6A61A960B7
:1007180000684FF49071FFF7FDFE4FF4AC71386834
:10072800FFF7F8FE3B686A69A968C3F84415C3F87F
:10073800482501229A606A68BAB9D3F82011D3F81B
:10074800582149B9002AF8D00F20242303FB068634
:1007580000237361BDE8F081002A14BF0F20002038
:10076800F3E71020F6E71120F4E72046F2E700BF90
:100778000C0000207FB5374AD2F82461002E48D0FB
:1007880010464FF49271FFF7C5FE02238DF8003032
:10079800D2F88034C2F880340393D2F83C350293FF
:1007A8002D4BDA6801920022C3E906226846D3E994
:1007B80000129047274AD2F844317BB14FF4A27116
:1007C8001046FFF7A7FE244B996939B10021C3E908
:1007D8000611D968D2F83C05FFF7A4FE1D4AD2F8E5
:1007E8002031A3B14FF490711046FFF793FE1A4BD6
:1007F800596961B1D2F84C150291002299688DF8B7
:10080800002001915A616846D3E90012904704B06C
:1008180070BDD2F81031002BCCD04FF4887110463F
:10082800FFF778FE0C4BD2F83C0599698842C1D194
:10083800DC69D96864B1D2F8005225F02005C2F805
:1008480000521A699C61DA60DE61FFF76BFEB1E75E
:100858009C61FAE7002000400C0000201F288CBF94
:10086800094A4FF0A0424FF00103D2F8041588BF9F
:1008780000F01F0003FA00F020EA01030840C2F864
:100888000835C2F80C05704700030050F0B5012088
:100898008FB0364E364FFFF7BFFD032500220120EB
:1008A800935D1F2B86BF03F01F0339464FF0A0410D
:1008B80003F5E074013200FA03F3052A41F82450E5
:1008C800C1F80C35ECD12B4D2B4B00930FCD06AC5A
:1008D8000FC495E80F00002684E80F002A22182389
:1008E800CDE906230DEB0301324668468DF8046016
:1008F800FFF728FE08B1FFF7E5FD204D45F001059B
:100908000620FFF7ABFF0D20FFF7A8FF0F20FFF72A
:10091800A5FF1120FFF7A2FF1420FFF79FFF162065
:10092800FFF79CFF164B02AA03F108071646186842
:100938005968144603C40833BB422246F7D11868E5
:1009480099889B792060A180A3710F22314668465F
:10095800FFF7CCFE08B1FFF7B5FD4FF47A744FF4FA
:100968007A40A847013CFAD1CAE700BF960B0000BD
:1009780000030050680B000000200040900B0000AE
:100988009B0B0000054B1B68082B01BF044B186824
:10099800B0FA80F0400918BF0020704730010010FD
:1009A8003401001008B54FF080430022C3F80C2131
:1009B800C3F81021C3F838254FF0805203F540439F
:1009C800D2F80414C3F82015D2F80814C3F8241573
:1009D800D2F80C14C3F82815D2F81014C3F82C1543
:1009E800D2F81414C3F83015D2F81814C3F8341513
:1009F800D2F81C14C3F84015D2F82014C3F84415D3
:100A0800D2F82414C3F84815D2F82814C3F84C15A2
:100A1800D2F82C14C3F85015D2F83014C3F8541572
:100A2800D2F83414C3F86015D2F83814C3F8641532
:100A3800D2F83C14C3F86815D2F84014C3F86C1502
:100A4800D2F84424C3F87025FFF79CFF10B1384B47
:100A5800384A1A60FFF796FF18B1374BFB22C3F8E4
:100A68001825FFF78FFF48B13449354B0A681B68D2
:100A780022F00F0203F00F0313430B60FFF782FF0E
:100A880018B1304B4FF400721A604FF08043D3F81E
:100A98000024D20744BF6FF00102C3F800242A4A99
:100AA800D2F8883043F47003C2F88830BFF34F8F10
:100AB800BFF36F8F4FF01023D3F80022002A03DB17
:100AC800D3F80432002B2FDA204B0122C3F8042577
:100AD800D3F80024002AFBD04FF010221221C2F8CC
:100AE8000012D3F80024002AFBD04FF01023122262
:100AF800C3F80422154B1A46D3F800140029FBD07A
:100B08000021C3F80415D2F80034002BFBD0BFF342
:100B18004F8F0D490E4BCA6802F4E0621343CB6055
:100B2800BFF34F8F00BFFDE70A4B0B4A1A6008BDA1
:100B38008C5600404881030000F00040E40E00405D
:100B4800580200104096024000ED00E000E001402D
:0C0B58000400FA05080000200090D00303
:100B64000608290CFFFFFFFFFFFFFFFFFFFFFFFF4A
:100B7400FFFFFFFF00000000000000000000D6019E
:100B84000600000000000000000000000338FDD84B
:100B940070470D0F11141668656C6C6F20776F72B7
:060BA4006C64210D0A0043
:040BAC000090D003E2
:04000003000003797D
:00000001FF
