:2000000000000120750500007B0500007D0500009505000095050000950500000000000075
:20002000000000000000000000000000950500009505000000000000950500009505000058
:200040009505000095050000950500009505000095050000950500009505000095050000D0
:200060009505000095050000950500009505000095050000950500009505000095050000B0
:20008000950500009505000095050000950500009505000095050000950500009505000090
:2000A000950500009505000095050000950500009505000095050000950500009505000070
:2000C000950500009505000095050000950500009505000095050000950500009505000050
:2000E000950500009505000095050000950500009505000095050000950500009505000030
:2001000095050000950500009505000095050000950500009505000095050000950500000F
:200120009505000095050000950500009505000095050000950500009505000095050000EF
:200140005449087840F0FF0008705349002008705249087840F0FF000870514900200870B3
:200160005049087840F0FF0008704F49002008704E49087840F0FF0008704D4900200870A3
:200180004C49087840F0FF0008704B49002008704A49087840F0FF00087049490020087093
:2001A0004849087840F0FF0008704749002008704649087840F0FF00087045490020087083
:2001C0004449087840F0FF0008704349002008704249087840F0FF00087041490020087073
:2001E0004049088840F00C0008803F49002008803E49088840F0F30008802649087820F031
:20020000020008703549087820F0020008702149087820F0040008702149087840F010003C
:20022000087048F23420C0F20000401EFDD100BF00BF1B49087820F010000870704708B56C
:200240002B494FF4B5400880FFF77AFF2949086820F003000860284946F65A1008602749AF
:200260000A6840F20110104308602349002008602349086840F00400086022482249214A62
:2002800003684FF60F7018400143116030BF00BFFEE7C046044C0040024C0040054C0040DA
:2002A000034C0040244C0040224C0040254C0040234C0040444C0040424C0040454C004082
:2002C000434C0040644C0040624C0040654C0040634C0040844C0040824C0040854C004062
:2002E000834C0040244D0040224D0040264D00400C4800400400014000080140040801406D
:2003000010ED00E000000140C0005A69002A4AD05FEA000C8B071CD1830722D1102A08D392
:2003200070B4103A78C978C0103AFBD270BC103238D0042A2CD3082A05D30C2A24BF08C928
:2003400008C008C908C008C908C092072AD0920F22E00B780370491C401C521E22D08B07C2
:20036000F7D1C30714D18307D8D0121F12D308C903801B0C4380001D121FF8D20AE008C9AD
:2003800003701B0A43701B0A83701B0AC370001D121FF4D2121D05D00B780370491C401CD3
:2003A000521EF9D1604670471448B0B5B0F1FF3F01D000F0B9F8124D1248A84210D01248B7
:2003C000124CA0420CD0001B083CC71054F8080F017855F821206168401C90477F1EF5D102
:2003E00000F0FCF80A4D0B4CA54205D002E054F8040B8047A542FAD1B0BDC046FFFFFFFF8A
:20040000F4050000FC05000004060000FC0500000000000000000000F8B5844640F6FF74B7
:200420001CF8013B002210E0481B401E10F8015B7F1E01F8015BF9D103E01CF8010B01F87D
:20044000010B521C5B08082AEADA5808F5D21CF8010B1CF8015B05F00F07FF1CC5F303151C
:20046000122F45EA001508D11CF8016B300A24BF1CF8010B60F3DF16F719AC42D4D1F8BDC1
:200480004EF68851CEF2000108684FF0F00340EA034008600C4885460C4885446F460720EF
:2004A0008743BD460A486F46076000F096F800F092F8002801D0FFF777FF00F06FF801202C
:2004C00000F00EF8FEE7C04600FE0020000200001400002000BF704708B5FFF7FBFFFEE7DF
:2004E00038B50D4C0546A06820B10C48B0F1FF3F00D080470A4800688047606810B1014677
:2005000028468847206800B18047064800688047FFF7E2FF38BDC04600000020FFFFFFFF33
:200520000C00002010000020F8B506460F4D104F7388002417E0A00000EBC4003218516843
:200540009068D26852B9AF420BD00A7855F822200346491C08461946904701E0FFF7D6FEA4
:200560007388641CA4B2A342E5DCF8BDF4050000FC050000FFF784BF7047FEE706490878B1
:2005800080F00100087042F62A40C0F20A00401EFDD1F3E7FEE7C046024C00400449B1F1A6
:2005A000FF3F07BF0021081C0868091DFFF747BEFFFFFFFF0349086070470249091F08601F
:2005C0007047704710000020D0F80320C31D08461946FFF79BBE0120704770477047000070
:2005E0000035000004010080C3050033013100FFF000000019040000C9050000E005000055
:0406000000000020D6
:00000001FF
