:020000040800F2
:100000000000012071DF0008B9DB0008C9DB00082F
:10001000E1DB0008F9DB000811DC0008000000004B
:1000200000000000000000000000000031C30008D4
:1000300029DC00080000000071C50008D9C50008CF
:10004000C1DF0008C1DF0008C1DF0008C1DF000810
:10005000C1DF0008C1DF0008C1DF0008C1DF000800
:10006000C1DF0008E1DC0008C1DF0008C1DF0008D3
:10007000C1DF0008C1DF000839DC00084DDC0008E2
:10008000C1DF0008C1DF0008C1DF0008C1DF0008D0
:10009000C1DF0008C1DF0008C1DF0008C1DF0008C0
:1000A000C1DF000861DC0008C1DF0008C1DF000813
:1000B0007DDC00080000000000000000C1DF000837
:1000C000C1DF0008C1DF0008C1DF000891DC0008C3
:1000D000A5DC0008B9DC0008C1DF0008C1DF0008AA
:1000E000C1DF0008C1DF00080000000000000000C0
:1000F0000000000000000000000000000000000000
:1001000000000000C1DF000800000000C1DF00089F
:100110000000000000000000C1DF0008C1DF00088F
:10012000C1DF0008C1DF0008C1DF0008C1DF00082F
:10013000C1DF000800000000000000000000000017
:10014000C1DF0008CDDC0008C1DF0008C1DF000806
:10015000C1DF0008C1DF0008C1DF0008C1DF0008FF
:10016000C1DF0008C1DF0008C1DF00080000000097
:10017000C1DF0008C1DF0008C1DF00080000000087
:0C018000C1DF0008C1DF0008C1DF00087B
:1001900010B5054C237833B9044B13B10448AFF3C1
:1001A00000800123237010BDA80100200000000082
:1001B000D4EC000808B5034B1BB103490348AFF367
:1001C000008008BD00000000AC010020D4EC000855
:1001D000034613F8012B002AFBD1181A0138704787
:1001E00001F0FF01102A2BDB10F0070F08D010F8E8
:1001F000013B013A8B422DD010F0070F42B3F6D1EC
:10020000F0B441EA012141EA014122F007047FF004
:1002100000070023F0E80256083C85EA010586EA5B
:10022000010685FA47F5A3FA87F586FA47F6A5FA97
:1002300087F68EB9EED1F0BC01F0FF0102F00702A3
:1002400032B110F8013B013A83EA010313B1F8D14E
:100250000020704701387047002D06BF354603382F
:10026000073815F0010F07D1013015F4807F02BF68
:10027000013015F4C03F0130F0BC0138704700BFB9
:1002800081F0004102E000BF83F0004330B54FEA47
:1002900041044FEA430594EA050F08BF90EA020FB4
:1002A0001FBF54EA000C55EA020C7FEA645C7FEA47
:1002B000655C00F0E2804FEA5454D4EB5555B8BF6A
:1002C0006D420CDD2C4480EA020281EA030382EADB
:1002D000000083EA010180EA020281EA0303362D6D
:1002E00088BF30BD11F0004F4FEA01314FF4801C40
:1002F0004CEA113102D0404261EB410113F0004F52
:100300004FEA03334CEA133302D0524263EB430308
:1003100094EA050F00F0A780A4F10104D5F1200EA6
:100320000DDB02FA0EFC22FA05F2801841F1000101
:1003300003FA0EF2801843FA05F359410EE0A5F1D5
:1003400020050EF1200E012A03FA0EFC28BF4CF006
:10035000020C43FA05F3C01851EBE37101F00045BC
:1003600007D54FF0000EDCF1000C7EEB00006EEBC9
:100370000101B1F5801F1BD3B1F5001F0CD3490853
:100380005FEA30004FEA3C0C04F101044FEA4452AA
:1003900012F5800F80F09A80BCF1004F08BF5FEA31
:1003A000500C50F1000041EB045141EA050130BD11
:1003B0005FEA4C0C404141EB010111F4801FA4F1B4
:1003C0000104E9D191F0000F04BF01460020B1FA09
:1003D00081F308BF2033A3F10B03B3F120020CDA41
:1003E0000C3208DD02F1140CC2F10C0201FA0CF01F
:1003F00021FA02F10CE002F11402D8BFC2F1200C84
:1004000001FA02F120FA0CFCDCBF41EA0C01904039
:10041000E41AA2BF01EB0451294330BD6FEA040482
:100420001F3C1CDA0C340EDC04F11404C4F120026D
:1004300020FA04F001FA02F340EA030021FA04F37F
:1004400045EA030130BDC4F10C04C4F1200220FAD6
:1004500002F001FA04F340EA0300294630BD21FA14
:1004600004F0294630BD94F0000F83F4801306BFDA
:1004700081F480110134013D4EE77FEA645C18BFCE
:100480007FEA655C29D094EA050F08BF90EA020F65
:1004900005D054EA000C04BF1946104630BD91EA5D
:1004A000030F1EBF0021002030BD5FEA545C05D160
:1004B0004000494128BF41F0004130BD14F580049F
:1004C0003CBF01F5801130BD01F0004545F0FE4113
:1004D00041F470014FF0000030BD7FEA645C1ABF48
:1004E000194610467FEA655C1CBF0B46024650EA7F
:1004F000013406BF52EA033591EA030F41F40021AB
:1005000030BD00BF90F0000F04BF0021704730B530
:100510004FF4806404F132044FF000054FF0000105
:1005200050E700BF90F0000F04BF0021704730B5C6
:100530004FF4806404F1320410F0004548BF40429B
:100540004FF000013EE700BF42004FEAE2014FEAF0
:1005500031014FEA02701FBF12F07F4393F07F4FCB
:1005600081F06051704732F07F4208BF704793F0CE
:100570007F4F04BF41F40021704730B54FF46074E1
:1005800001F0004521F000411CE700BF50EA0102E4
:1005900008BF704730B54FF000050AE050EA01028D
:1005A00008BF704730B511F0004502D5404261EBFD
:1005B00041014FF4806404F132045FEA915C3FF43E
:1005C000D8AE4FF003025FEADC0C18BF03325FEADB
:1005D000DC0C18BF033202EBDC02C2F1200300FA8C
:1005E00003FC20FA02F001FA03FE40EA0E0021FAB1
:1005F00002F11444BDE600BF70B54FF0FF0C4CF49F
:10060000E06C1CEA11541DBF1CEA135594EA0C0F50
:1006100095EA0C0F00F0DEF82C4481EA030621EA8B
:100620004C5123EA4C5350EA013518BF52EA0335C6
:1006300041F4801143F4801338D0A0FB02CE4FF078
:100640000005E1FB02E506F00042E0FB03E54FF0A8
:100650000006E1FB03569CF0000F18BF4EF0010EA0
:10066000A4F1FF04B6F5007F64F5407404D25FEA9C
:100670004E0E6D4146EB060642EAC62141EA55514F
:100680004FEAC52040EA5E504FEACE2EB4F1FD0C91
:1006900088BFBCF5E06F1ED8BEF1004F08BF5FEA0F
:1006A000500E50F1000041EB045170BD06F00046C1
:1006B00046EA010140EA020081EA0301B4EB5C046E
:1006C000C2BFD4EB0C0541EA045170BD41F4801166
:1006D0004FF0000E013C00F3AB8014F1360FDEBF8B
:1006E000002001F0004170BDC4F10004203C35DA67
:1006F0000C341BDC04F11404C4F1200500FA05F3EA
:1007000020FA04F001FA05F240EA020001F000428A
:1007100021F0004110EBD37021FA04F642EB060100
:100720005EEA430E08BF20EAD37070BDC4F10C042A
:10073000C4F1200500FA04F320FA05F001FA04F2EE
:1007400040EA020001F0004110EBD37041F10001DA
:100750005EEA430E08BF20EAD37070BDC4F12005E5
:1007600000FA05F24EEA020E20FA04F301FA05F24D
:1007700043EA020321FA04F001F0004121FA04F2F5
:1007800020EA020000EBD3705EEA430E08BF20EAC5
:10079000D37070BD94F0000F0FD101F000464000FF
:1007A00041EB010111F4801F08BF013CF7D041EA81
:1007B000060195F0000F18BF704703F00046520085
:1007C00043EB030313F4801F08BF013DF7D043EA56
:1007D0000603704794EA0C0F0CEA135518BF95EA0C
:1007E0000C0F0CD050EA410618BF52EA4306D1D193
:1007F00081EA030101F000414FF0000070BD50EAB2
:10080000410606BF1046194652EA430619D094EA3B
:100810000C0F02D150EA013613D195EA0C0F05D125
:1008200052EA03361CBF104619460AD181EA030179
:1008300001F0004141F0FE4141F470014FF0000031
:1008400070BD41F0FE4141F4780170BD70B54FF0CC
:10085000FF0C4CF4E06C1CEA11541DBF1CEA13554C
:1008600094EA0C0F95EA0C0F00F0A7F8A4EB05042E
:1008700081EA030E52EA03354FEA013100F0888025
:100880004FEA03334FF0805545EA131343EA1263EE
:100890004FEA022245EA111545EA10654FEA0026A3
:1008A0000EF000419D4208BF964244F1FD0404F55C
:1008B000407402D25B084FEA3202B61A65EB0305B8
:1008C0005B084FEA32024FF480104FF4002CB6EB75
:1008D000020E75EB030E22BFB61A754640EA0C00F5
:1008E0005B084FEA3202B6EB020E75EB030E22BF35
:1008F000B61A754640EA5C005B084FEA3202B6EB76
:10090000020E75EB030E22BFB61A754640EA9C0034
:100910005B084FEA3202B6EB020E75EB030E22BF04
:10092000B61A754640EADC0055EA060E18D04FEAC2
:10093000051545EA16754FEA06164FEAC30343EA62
:1009400052734FEAC2025FEA1C1CC0D111F4801F2F
:100950000BD141EA00014FF000004FF0004CB6E728
:1009600011F4801F04BF01430020B4F1FD0C88BFC7
:10097000BCF5E06F3FF6AFAEB5EB030C04BFB6EBD2
:10098000020C5FEA500C50F1000041EB045170BDC5
:100990000EF0004E4EEA113114EB5C04C2BFD4EBF2
:1009A0000C0541EA045170BD41F480114FF0000E76
:1009B000013C90E645EA060E8DE60CEA135594EAF2
:1009C0000C0F08BF95EA0C0F3FF43BAF94EA0C0FF5
:1009D0000AD150EA01347FF434AF95EA0C0F7FF46A
:1009E00025AF104619462CE795EA0C0F06D152EABE
:1009F00003353FF4FDAE1046194622E750EA4106A2
:100A000018BF52EA43067FF4C5AE50EA41047FF4B2
:100A10000DAF52EA43057FF4EBAE12E74FF0FF3C17
:100A200006E000BF4FF0010C02E000BF4FF0010CE8
:100A30004DF804CD4FEA410C7FEA6C5C4FEA430C61
:100A400018BF7FEA6C5C1BD001B050EA410C0CBFB0
:100A500052EA430C91EA030F02BF90EA020F002012
:100A6000704710F1000F91EA030F58BF994208BF79
:100A700090422CBFD8176FEAE37040F00100704736
:100A80004FEA410C7FEA6C5C02D150EA013C07D18D
:100A90004FEA430C7FEA6C5CD6D152EA033CD3D0D8
:100AA0005DF8040B704700BF8446104662468C46D2
:100AB0001946634600E000BF01B5FFF7B7FF002805
:100AC00048BF10F1000F01BD4DF808EDFFF7F4FF2E
:100AD0000CBF012000205DF808FB00BF4DF808EDB9
:100AE000FFF7EAFF34BF012000205DF808FB00BFDC
:100AF0004DF808EDFFF7E0FF94BF012000205DF8FE
:100B000008FB00BF4DF808EDFFF7CEFF94BF0120B2
:100B100000205DF808FB00BF4DF808EDFFF7C4FFAB
:100B200034BF012000205DF808FB00BF4FEA4102FE
:100B300012F5001215D211D56FF47873B3EB62522F
:100B400012D94FEAC12343F0004343EA505311F056
:100B5000004F23FA02F018BF404270474FF00000E8
:100B6000704750EA013005D111F0004008BF6FF026
:100B7000004070474FF00000704700BF4A0011D29C
:100B800012F5001211D20DD56FF47873B3EB6252E7
:100B90000ED44FEAC12343F0004343EA505323FAF3
:100BA00002F070474FF00000704750EA013002D168
:100BB0004FF0FF3070474FF00000704753B94AB90B
:100BC000002908BF00281CBF4FF0FF314FF0FF3055
:100BD00000F094B9ADF1080C6DE904CE00F028F8EE
:100BE000DDF804E0DDE9022304B07047D0B500224F
:100BF0000D4B06460F46FFF7FFFCFFF7BFFF04460D
:100C0000FFF780FC0022094BFFF7F6FC02460B467B
:100C100030463946FFF738FBFFF7B0FF0022234686
:100C200010431946D0BD00BF0000F03D0000F04168
:100C30002DE9F047089E04468846002B4BD18A4296
:100C4000154667D9B2FA82F24AB1C2F1200701FA19
:100C500002F320FA07F7954047EA030894404FEA69
:100C6000154E230CB8FBFEF71FFA85FC0EFB178808
:100C700043EA084307FB0CF1994209D9EB1807F145
:100C8000FF3080F01B81994240F21881023F2B44D3
:100C90005B1AA4B2B3FBFEF00EFB103344EA03442C
:100CA00000FB0CFCA44509D92C1900F1FF3380F09E
:100CB0000781A44540F2048102382C4440EA0740F1
:100CC000A4EB0C0400271EB1D4400023C6E9004366
:100CD0003946BDE8F0878B4209D9002E00F0EB8041
:100CE0000027C6E9000138463946BDE8F087B3FA67
:100CF00083F7002F47D18B4202D3824200F2FA8061
:100D0000841A61EB030301209846002EE0D0C6E967
:100D10000048DDE702B9FFDEB2FA82F2002A40F0B5
:100D20008F80491B4FEA154E1FFA85F80127B1FB4A
:100D3000FEFC230C0EFB1C1143EA014308FB0CF1E3
:100D4000994207D9EB180CF1FF3002D2994200F218
:100D5000CD808446591AA3B2B1FBFEF00EFB1014ED
:100D600043EA044408FB00F8A04507D92C1900F118
:100D7000FF3302D2A04500F2B6801846A4EB080467
:100D800040EA0C409FE7C7F1200CBB4022FA0CFE62
:100D90004EEA030E01FA07F420FA0CF521FA0CF3DF
:100DA0004FEA1E482543B3FBF8F92C0C08FB193316
:100DB0001FFA8EFA44EA034309FB0AF49C4202FA42
:100DC00007F200FA07F10BD91EEB030309F1FF301C
:100DD00080F087809C4240F28480A9F1020973442C
:100DE0001B1BADB2B3FBF8F008FB103345EA03441C
:100DF00000FB0AFAA24508D91EEB040400F1FF33F8
:100E00006BD2A24569D90238744440EA0940A0FB7C
:100E10000289A4EB0A044C45C2464B4654D351D038
:100E2000002E69D0B1EB0A0564EB030404FA0CFC54
:100E3000FD40FC404CEA0505C6E90054002747E7A1
:100E4000C2F1200320FA03F7954001FA02F021FADB
:100E500003F34FEA154E3843010CB3FBFEF71FFABC
:100E600085F80EFB173341EA034107FB08F38B4279
:100E700004FA02F407D9691807F1FF3C2FD28B421C
:100E80002DD9023F2944CB1A81B2B3FBFEF00EFBF1
:100E9000103341EA034100FB08F38B4207D969187C
:100EA00000F1FF3C17D28B4215D902382944C91AE8
:100EB00040EA07473BE73746304609E70746E7E69B
:100EC0001846FBE64145ABD2B8EB020A69EB0E02CD
:100ED00001381346A4E76046E9E7184695E76746F8
:100EE000D1E781467CE702382C4447E7ACF1020C9D
:100EF0002B442FE7384608E73746E9E6704700BF3E
:100F000080B582B000AF0023FB71032000F0DBF856
:100F100000200CF0D7FD0346002B02D00123FB710B
:100F200001E00CF073FBFB7918460837BD4680BD25
:100F300080B400AF054B1A68054B1B681344034A85
:100F4000136000BFBD465DF8047B70473C4E002037
:100F50000400002080B400AF034B1B681846BD4658
:100F60005DF8047B704700BF3C4E002080B485B024
:100F700000AF78607B6803F00703FB600C4BDB6815
:100F8000BB60BA684FF6FF031340BB60FB681A02F0
:100F9000BB68134343F0BF6343F40033BB60044AB0
:100FA000BB68D36000BF1437BD465DF8047B704753
:100FB00000ED00E080B400AF044BDB681B0A03F0D7
:100FC00007031846BD465DF8047B704700ED00E05E
:100FD00080B483B000AF0346FB7197F90730002B54
:100FE0000BDBFB7903F01F02074997F907305B0918
:100FF000012000FA02F241F8232000BF0C37BD4661
:101000005DF8047B704700BF00E100E080B483B06E
:1010100000AF03463960FB7197F90730002B0ADBFC
:101020003B68DAB20C4997F907301201D2B20B448F
:1010300083F800230AE03B68DAB20849FB7903F041
:101040000F03043B1201D2B20B441A7600BF0C37D7
:10105000BD465DF8047B704700E100E000ED00E074
:1010600080B489B000AFF860B9607A60FB6803F0C3
:101070000703FB61FB69C3F10703042B28BF0423AB
:10108000BB61FB690433062B02D9FB69033B00E01B
:1010900000237B614FF0FF32BB6902FA03F3DA43AE
:1010A000BB681A407B699A404FF0FF317B6901FAB7
:1010B00003F3D9437B680B40134318462437BD46DE
:1010C0005DF8047B704780B582B000AF78607868C7
:1010D000FFF74CFF00BF0837BD4680BD80B586B026
:1010E00000AF0346B9607A60FB7300237B61FFF7B2
:1010F00061FF78617A68B9687869FFF7B1FF0246E5
:1011000097F90F3011461846FFF780FF00BF1837D8
:10111000BD4680BD80B582B000AF0346FB7197F934
:1011200007301846FFF754FF00BF0837BD4680BDA3
:1011300080B485B000AF78607B68002B01D10123BB
:1011400098E07B681B681A464D4B9A420FD87B6823
:101150001B681A464B4B13444B4AA2FB03231B0943
:101160009A007B685A647B68484A1A640EE07B6880
:101170001B681A46464B1344434AA2FB03231B0930
:101180009A007B685A647B68424A1A647B68022230
:1011900083F825207B681B681B68FB60FB6823F4D1
:1011A000FF4323F07003FB607B689A687B68DB6811
:1011B0001A437B681B691A437B685B691A437B6827
:1011C0009B691A437B68DB691A437B681B6A13437C
:1011D000FA681343FB607B681B68FA681A607B68D7
:1011E0009B68B3F5804F39D07B681B6C274A9342CC
:1011F0001AD1294B1A687B685B6C03F01C030F2122
:1012000001FA03F3DB43244913400B60224B1A68B5
:101210007B6859687B685B6C03F01C0301FA03F37D
:101220001D4913430B6019E01C4B1A687B685B6C0B
:1012300003F01C030F2101FA03F3DB4317491340AA
:101240000B60164B1A687B6859687B685B6C03F00F
:101250001C0301FA03F3114913430B607B6800225E
:10126000DA637B68012283F825207B68002283F8FB
:101270002420002318461437BD465DF8047B7047D0
:1012800007040240F8FFFDBFCDCCCCCC00000240EB
:10129000F8FBFDBF00040240A8000240A804024081
:1012A00080B586B000AFF860B9607A603B6000231B
:1012B000FB75FB6893F82430012B01D102234BE02E
:1012C000FB68012283F82420FB6893F82530DBB209
:1012D000012B3AD1FB68022283F82520FB6800220B
:1012E000DA63FB681B681A68FB681B6822F001025E
:1012F0001A603B687A68B968F86800F021F9FB6801
:101300001B6B002B08D0FB681B681A68FB681B6806
:1013100042F00E021A600FE0FB681B681A68FB6857
:101320001B6822F004021A60FB681B681A68FB68DD
:101330001B6842F00A021A60FB681B681A68FB68A7
:101340001B6842F001021A6005E0FB68002283F886
:1013500024200223FB75FB7D18461837BD4680BD4F
:1013600080B584B000AF78600023FB737B6893F88E
:101370002530DBB2022B05D07B680422DA6301231F
:10138000FB7329E07B681B681A687B681B6822F086
:101390000E021A607B681B681A687B681B6822F063
:1013A00001021A607B685B6C03F01C027B681B6C9B
:1013B000012101FA02F25A607B68012283F825209C
:1013C0007B68002283F824207B689B6B002B03D072
:1013D0007B689B6B78689847FB7B18461037BD4647
:1013E00080BD80B584B000AF78607B681B6C1B68E3
:1013F000FB607B681B681B68BB607B685B6C03F0F1
:101400001C0304229A40FB681340002B26D0BB68C3
:1014100003F00403002B21D07B681B681B6803F0DA
:101420002003002B07D17B681B681A687B681B6848
:1014300022F004021A607B685B6C03F01C027B687C
:101440001B6C042101FA02F25A607B681B6B002BB3
:1014500071D07B681B6B786898476CE07B685B6C2D
:1014600003F01C0302229A40FB681340002B2ED08D
:10147000BB6803F00203002B29D07B681B681B6844
:1014800003F02003002B0BD17B681B681A687B6874
:101490001B6822F00A021A607B68012283F825206B
:1014A0007B685B6C03F01C027B681B6C022101FAF9
:1014B00002F25A607B68002283F824207B68DB6A92
:1014C000002B38D07B68DB6A7868984733E07B680C
:1014D0005B6C03F01C0308229A40FB681340002B4E
:1014E0002AD0BB6803F00803002B25D07B681B685B
:1014F0001A687B681B6822F00E021A607B685B6CBE
:1015000003F01C027B681B6C012101FA02F25A6095
:101510007B680122DA637B68012283F825207B68DF
:10152000002283F824207B685B6B002B04D07B684F
:101530005B6B7868984700BF00BF1037BD4680BD21
:1015400080B485B000AFF860B9607A603B60FB683A
:101550005B6C03F01C02FB681B6C012101FA02F2B8
:101560005A60FB681B683A685A60FB689B68102BDE
:1015700008D1FB681B687A689A60FB681B68BA68C8
:10158000DA6007E0FB681B68BA689A60FB681B6852
:101590007A68DA6000BF1437BD465DF8047B704797
:1015A00080B487B000AF7860396000237B6154E17C
:1015B0003B681A6801217B6901FA03F31340FB6061
:1015C000FB68002B00F046813B685B68022B03D070
:1015D0003B685B68122B23D17B69DA087B68083291
:1015E00053F822303B617B6903F007039B000F2215
:1015F00002FA03F3DB433A6913403B613B681A6923
:101600007B6903F007039B0002FA03F33A69134373
:101610003B617B69DA087B680832396943F822103C
:101620007B681B683B617B695B00032202FA03F362
:10163000DB433A6913403B613B685B6803F003029C
:101640007B695B0002FA03F33A6913433B617B68F1
:101650003A691A603B685B68012B0BD03B685B689A
:10166000022B07D03B685B68112B03D03B685B689B
:10167000122B30D17B689B683B617B695B00032246
:1016800002FA03F3DB433A6913403B613B68DA68D3
:101690007B695B0002FA03F33A6913433B617B68A1
:1016A0003A699A607B685B683B6101227B6902FA58
:1016B00003F3DB433A6913403B613B685B681B09FA
:1016C00003F001027B6902FA03F33A6913433B61B9
:1016D0007B683A695A607B68DB683B617B695B00C9
:1016E000032202FA03F3DB433A6913403B613B6890
:1016F0009A687B695B0002FA03F33A6913433B6122
:101700007B683A69DA603B685B6803F08053002BC2
:1017100000F0A080584B1B6E574A43F0010313663C
:10172000554B1B6E03F00103BB60BB68534A7B69DA
:101730009B08023352F823303B617B6903F00303BB
:101740009B000F2202FA03F3DB433A6913403B612B
:101750007B68B3F1904F19D07B68494A934213D00C
:101760007B68484A93420DD07B68474A934207D032
:101770007B68464A934201D1042308E0072306E030
:10178000032304E0022302E0012300E000237A693E
:1017900002F00302920093403A6913433B613749D8
:1017A0007B699B0802333A6941F82320384B1B6858
:1017B0003B61FB68DB433A6913403B613B685B6814
:1017C00003F48033002B03D03A69FB6813433B6179
:1017D0002F4A3B6913602E4B5B683B61FB68DB4320
:1017E0003A6913403B613B685B6803F40033002BAC
:1017F00003D03A69FB6813433B61254A3B69536058
:10180000234B9B683B61FB68DB433A6913403B61B8
:101810003B685B6803F48013002B03D03A69FB68D4
:1018200013433B611A4A3B699360194BDB683B6188
:10183000FB68DB433A6913403B613B685B6803F438
:101840000013002B03D03A69FB6813433B61104A35
:101850003B69D3607B6901337B613B681A687B69B4
:1018600022FA03F3002B7FF4A3AE00BF1C37BD4662
:101870005DF8047B704700BF00100240000001408B
:101880000004004800080048000C00480010004810
:101890000004014080B485B000AF78600B467B80C7
:1018A0007B681A697B881340002B02D00123FB73ED
:1018B00001E00023FB73FB7B18461437BD465DF83F
:1018C000047B704780B483B000AF78600B467B80A8
:1018D00013467B707B78002B03D07A887B689A61F3
:1018E00002E07A887B689A6200BF0C37BD465DF8DB
:1018F000047B704780B483B000AF78600B467B8078
:101900007B685A697B881340002B03D07A887B68F8
:101910009A6202E07A887B689A6100BF0C37BD4604
:101920005DF8047B7047000080B582B000AF0346CD
:10193000FB80084B5A69FB881340002B06D0054AF0
:10194000FB885361FB88184607F048F800BF08374A
:10195000BD4680BD0004014080B584B000AF786012
:101960007B68002B01D1012380E07B6893F836303F
:10197000DBB2002B06D17B68002283F83520786823
:101980000BF06CFE7B68022283F836207B681B68B4
:10199000DB68FB607B685B68012B04D07B689B6A1B
:1019A000B3F5000F03D1FB6823F01E03FB607B68D7
:1019B0005B694FF6FF72934205D0FB6823F46043E6
:1019C00023F0C003FB60FA682A4B1340FB607B687E
:1019D0005A687B689B681A437B681B6A1A437B685A
:1019E0005B6A1A437B689B6A1343FA681343FB6084
:1019F0007B685B68012B04D07B689B6AB3F5000FA2
:101A000007D17B68DA687B681B691343FA68134364
:101A1000FB607B685B694FF6FF7293420AD07B687C
:101A20005A697B689B691A437B68DB691343FA68D0
:101A30001343FB607B681B68FA68DA607B681B688D
:101A40000D4A934208D17B68D96A7B681A6B7B6820
:101A50001B680A431A6204E07B681B687A68D26AD2
:101A60001A627B68012283F836200023184610375B
:101A7000BD4680BDF8F119FF007C004080B483B002
:101A800000AF786039607B68022283F83620234BF0
:101A90001B6A224A43F0010313627B685B68012BD7
:101AA0000CD07B689B6AB3F5000F07D17B681B687D
:101AB000DA687B681B6822F46062DA607B681B6806
:101AC0009A687B681B6842F010029A607B681B680A
:101AD0009A687B681B6842F002029A607B681B6808
:101AE0001A697B681B6842F001021A617B681B68F7
:101AF0003A689A617B681B681A697B681B6842F0C8
:101B000004021A617B68012283F8362000231846FC
:101B10000C37BD465DF8047B704700BF00040140F0
:101B200080B582B000AF78607B681B681B6803F0EB
:101B30000103012B0DD17B681B689B6803F0010337
:101B4000012B06D17B681B6801225A60786805F07A
:101B5000E3FA7B681B681B6803F00203022B0DD1BC
:101B60007B681B689B6803F00203022B06D17B682D
:101B70001B6802225A60786805F0D8FA7B681B68F7
:101B80001B6803F00403042B0DD17B681B689B6862
:101B900003F00403042B06D17B681B6804225A60FF
:101BA000786800F058F87B681B681B6803F008032E
:101BB000082B0DD17B681B689B6803F00803082B7A
:101BC00006D17B681B6808225A60786800F04DF8DF
:101BD0007B681B681B6803F01003102B0DD17B681A
:101BE0001B689B6803F01003102B06D17B681B68F1
:101BF00010225A60786800F042F87B681B681B6806
:101C000003F02003202B0DD17B681B689B6803F039
:101C10002003202B06D17B681B6820225A6078683D
:101C200000F037F87B681B681B6803F04003402B0B
:101C30000DD17B681B689B6803F04003402B06D1E5
:101C40007B681B6840225A60786800F02CF800BF5F
:101C50000837BD4680BD80B483B000AF786000BF58
:101C60000C37BD465DF8047B704780B483B000AF8D
:101C7000786000BF0C37BD465DF8047B704780B4C8
:101C800083B000AF786000BF0C37BD465DF8047BC1
:101C9000704780B483B000AF786000BF0C37BD469A
:101CA0005DF8047B704780B483B000AF786000BFFC
:101CB0000C37BD465DF8047B7047000080B400AF70
:101CC000054B1B68044A43F48073136000BFBD4694
:101CD0005DF8047B704700BF0070004080B483B0A3
:101CE00000AF78600C4BDA687B6803F01F03DB43BE
:101CF0001A407B685B0908491343CB60064B9A681E
:101D00007B6803F01F03044913438B6000BF0C374B
:101D1000BD465DF8047B70470070004080B400AFA2
:101D2000044B1B6803F4C0631846BD465DF8047B92
:101D3000704700BF0070004080B485B000AF78608D
:101D40007B68B3F5007F30D1234B1B6803F4C0637D
:101D5000B3F5007F38D0204B1B6823F4C0631E4AC4
:101D600043F4007313601D4B1B68322202FB03F324
:101D70001B4AA2FB03239B0C0133FB6002E0FB68C0
:101D8000013BFB60144B5B6903F48063B3F5806F28
:101D900002D1FB68002BF2D10F4B5B6903F4806327
:101DA000B3F5806F10D103230FE00B4B1B6803F4D6
:101DB000C063B3F5806F07D0074B1B6823F4C06383
:101DC000054A43F480631360002318461437BD4668
:101DD0005DF8047B704700BF007000403C010020AC
:101DE00083DE1B4380B485B000AF78603960002388
:101DF000FB737B68072B71D801A252F823F000BF58
:101E0000211E0008451E0008651E0008811E0008EE
:101E10009D1E0008DD1E0008DD1E0008B91E00081A
:101E2000334B1A6A3B6823F48043314913430B62F6
:101E30002F4B5A6A3B6823F42043DB432C49134061
:101E40004B624EE02A4B9A6A29493B6813438B62E6
:101E5000274BDA6A3B6823F01003DB432449134025
:101E6000CB623EE0224B1A6B21493B6813430B6364
:101E70001F4B5A6B3B68DB431D4913404B6330E0FB
:101E80001B4B9A6B1A493B6813438B63184BDA6BF5
:101E90003B68DB4316491340CB6322E0144B1A6CBA
:101EA00013493B6813430B64114B5A6C3B68DB438B
:101EB0000F4913404B6414E00D4B9A6D3B6803F0DF
:101EC0000B030B4913438B65094BDA6D3B6803F039
:101ED0000B03DB4306491340CB6502E00123FB7390
:101EE00000BFFB7B18461437BD465DF8047B704786
:101EF0000070004080B485B000AF78603960002386
:101F0000FB737B68072B71D801A252F823F000BF46
:101F1000311F0008551F0008751F0008911F000899
:101F2000AD1F0008ED1F0008ED1F0008C91F0008C5
:101F3000334B5A6A3B6823F42043314913434B62C5
:101F40002F4B1A6A3B6823F48043DB432C49134030
:101F50000B624EE02A4BDA6A3B6823F010032849F3
:101F60001343CB62264B9A6A3B68DB4324491340F8
:101F70008B623EE0224B5A6B21493B6813434B6313
:101F80001F4B1A6B3B68DB431D4913400B6330E06A
:101F90001B4BDA6B1A493B681343CB63184B9A6BA4
:101FA0003B68DB43164913408B6322E0144B5A6CA9
:101FB00013493B6813434B64114B1A6C3B68DB437A
:101FC0000F4913400B6414E00D4BDA6D3B6803F0CE
:101FD0000B030B491343CB65094B9A6D3B6803F028
:101FE0000B03DB43064913408B6502E00123FB73BF
:101FF00000BFFB7B18461437BD465DF8047B704775
:102000000070004080B400AF054B9B68044A43F465
:102010008063936000BFBD465DF8047B704700BFDE
:102020000070004080B582B000AF454B1B68444A49
:1020300043F001031360FEF78DFF786008E0FEF7C0
:1020400089FF02467B68D31A022B01D9032373E070
:102050003B4B1B6803F00203002BF0D0384B1B688E
:1020600023F0F003364A43F060031360344B002240
:102070009A60344B344A1A60344B1B6818460BF094
:1020800021FD0346002B01D0012355E0FEF762FF3E
:1020900078600AE0FEF75EFF02467B68D31A41F2E1
:1020A0008832934201D9032346E0254B9B6803F015
:1020B0000C03002BEED1224B1A682149244B13400C
:1020C0000B60FEF747FF786008E0FEF743FF02462B
:1020D0007B68D31A022B01D903232DE0184B1B6810
:1020E00003F02063002BF0D1154B0022DA60144B73
:1020F000DB68134A43F48053D360114B00221A610A
:102100000F4B1B690E4A43F4805313610C4B1B6841
:102110000B4A23F480231360094B00229A61084B79
:102120004FF0FF321A62064BD3F89430044A43F45E
:102130000003C2F89430002318460837BD4680BD1E
:10214000001002403C01002000093D00000000207A
:10215000FFF4FEFA80B588B000AF78607B68002B92
:1021600001D10123DDE3A44B9B6803F00C03BB61A9
:10217000A14BDB6803F003037B617B681B6803F002
:102180001003002B00F0E180BB69002B07D0BB6976
:102190000C2B40F088807B69012B40F08480964BAB
:1021A0001B6803F00203002B05D07B689B69002BA2
:1021B00001D10123B5E37B681A6A8F4B1B6803F0DA
:1021C0000803002B04D08C4B1B6803F0F00305E0E0
:1021D000894BD3F894301B0903F0F003934223D2C8
:1021E0007B681B6A184600F07BFD0346002B01D07C
:1021F000012396E3804B1B687F4A43F0080313607A
:102200007D4B1B6823F0F0027B681B6A7A491343FD
:102210000B60794B5B6823F47F427B68DB691B02B0
:10222000754913434B6022E0734B1B68724A43F0BD
:1022300008031360704B1B6823F0F0027B681B6A75
:102240006D4913430B606C4B5B6823F47F427B68E2
:10225000DB691B02684913434B607B681B6A1846A5
:1022600000F03EFD0346002B01D0012359E300F0AE
:1022700043FC0146604B9B681B0903F00F035F4A58
:10228000D35C03F01F0321FA03F35D4A13605D4B37
:102290001B6818460BF016FC0346FB73FB7B002BF8
:1022A00052D0FB7B3DE37B689B69002B32D0524BC5
:1022B0001B68514A43F001031360FEF74BFE38617F
:1022C00008E0FEF747FE02463B69D31A022B01D90C
:1022D000032326E3484B1B6803F00203002BF0D0D6
:1022E000454B1B68444A43F008031360424B1B688C
:1022F00023F0F0027B681B6A3F4913430B603E4B9F
:102300005B6823F47F427B68DB691B023A49134315
:102310004B601AE0384B1B68374A23F00103136007
:10232000FEF718FE386108E0FEF714FE02463B692E
:10233000D31A022B01D90323F3E22F4B1B6803F0BE
:102340000203002BF0D100E000BF7B681B6803F0A4
:102350000103002B75D0BB69082B05D0BB690C2B82
:102360000ED17B69032B0BD1234B1B6803F4003385
:10237000002B65D07B685B68002B61D10123D0E224
:102380007B685B68B3F5803F06D11B4B1B681A4A1C
:1023900043F4803313601DE07B685B68B3F5A02FC6
:1023A0000CD1154B1B68144A43F480231360124B65
:1023B0001B68114A43F4803313600BE00E4B1B681B
:1023C0000D4A23F4803313600B4B1B680A4A23F435
:1023D000802313607B685B68002B1CD0FEF7BAFD7E
:1023E000386111E0FEF7B6FD02463B69D31AB3F53A
:1023F000967F09D9032394E20010024078F5000883
:102400003C01002000000020AF4B1B6803F40033A8
:10241000002BE7D015E0FEF79DFD386109E0FEF7DF
:1024200099FD02463B69D31AB3F5967F01D9032380
:1024300077E2A54B1B6803F40033002BEFD100E0DB
:1024400000BF7B681B6803F00203002B60D0BB69F0
:10245000042B05D0BB690C2B19D17B69022B16D13B
:10246000994B1B6803F48063002B05D07B68DB6805
:10247000002B01D1012354E2934B5B6823F0F85207
:102480007B681B691B06904913434B6040E07B68E7
:10249000DB68002B23D08C4B1B688B4A43F4807382
:1024A0001360FEF757FD386108E0FEF753FD024662
:1024B0003B69D31A022B01D9032332E2824B1B68FA
:1024C00003F48063002BF0D07F4B5B6823F0F8525D
:1024D0007B681B691B067C4913434B6018E07A4BF1
:1024E0001B68794A23F480731360FEF733FD38616B
:1024F00008E0FEF72FFD02463B69D31A022B01D9F3
:1025000003230EE2704B1B6803F48063002BF0D1B1
:102510007B681B6803F00803002B3CD07B685B6979
:10252000002B1CD0684BD3F89430674A43F001036A
:10253000C2F89430FEF70EFD386108E0FEF70AFDA0
:1025400002463B69D31A022B01D90323E9E15E4B12
:10255000D3F8943003F00203002BEFD01BE05A4B6A
:10256000D3F89430584A23F00103C2F89430FEF7B0
:10257000F1FC386108E0FEF7EDFC02463B69D31A36
:10258000022B01D90323CCE14F4BD3F8943003F055
:102590000203002BEFD17B681B6803F00403002BC0
:1025A00000F0A6800023FB77474B9B6D03F0805320
:1025B000002B0DD1444B9B6D434A43F080539365F0
:1025C000414B9B6D03F08053BB60BB680123FB77DD
:1025D0003E4B1B6803F48073002B18D13B4B1B68E8
:1025E0003A4A43F480731360FEF7B4FC386108E0A4
:1025F000FEF7B0FC02463B69D31A022B01D9032334
:102600008FE1324B1B6803F48073002BF0D07B68A2
:102610009B68012B08D12C4BD3F890302A4A43F009
:102620000103C2F8903024E07B689B68052B10D131
:10263000254BD3F89030244A43F00403C2F890307D
:10264000214BD3F89030204A43F00103C2F8903078
:102650000FE01D4BD3F890301B4A23F00103C2F862
:102660009030194BD3F89030174A23F00403C2F886
:1026700090307B689B68002B16D0FEF76BFC3861AE
:102680000AE0FEF767FC02463B69D31A41F2883242
:10269000934201D9032344E10B4BD3F8903003F06C
:1026A0000203002BEDD01AE0FEF754FC38610FE076
:1026B000FEF750FC02463B69D31A41F2883293423E
:1026C00006D903232DE100BF001002400070004036
:1026D000964BD3F8903003F00203002BE8D1FB7F38
:1026E000012B05D1914B9B6D904A23F0805393654C
:1026F0007B681B6803F02003002B3CD07B685B6A7F
:10270000002B1CD0894BD3F89830884A43F0010342
:10271000C2F89830FEF71EFC386108E0FEF71AFC9C
:1027200002463B69D31A022B01D90323F9E07F4B00
:10273000D3F8983003F00203002BEFD01BE07B4B63
:10274000D3F89830794A23F00103C2F89830FEF7A5
:1027500001FC386108E0FEF7FDFB02463B69D31A35
:10276000022B01D90323DCE0704BD3F8983003F03F
:102770000203002BEFD17B689B6A002B00F0D08016
:10278000BB690C2B00F08D807B689B6A022B5AD1B1
:10279000664B1B68654A23F080731360FEF7DAFB13
:1027A000386108E0FEF7D6FB02463B69D31A022BDC
:1027B00001D90323B5E05D4B1B6803F00073002BC8
:1027C000F0D15A4BDA685A4B13407A68D16A7A686A
:1027D000126B013A120111437A68526B12021143D3
:1027E0007A68D26B5208013A520511437A68126C2A
:1027F0005208013A520611437A68926BD2060A4394
:102800004A491343CB60494B1B68484A43F08073E5
:102810001360464BDB68454A43F08073D360FEF794
:1028200099FB386108E0FEF795FB02463B69D31A35
:10283000022B01D9032374E03C4B1B6803F00073A7
:10284000002BF0D06CE0394B1B68384A23F08073C2
:102850001360364B1B6803F00063002B05D1334B2C
:10286000DB68324A23F00303D360304BDB682F4A26
:1028700023F0887323F48033D360FEF76BFB386159
:1028800008E0FEF767FB02463B69D31A022B01D929
:10289000032346E0254B1B6803F00073002BF0D1A7
:1028A0003EE07B689B6A012B01D1012339E01F4B7D
:1028B000DB687B617B6903F003027B68DB6A9A4219
:1028C0002CD17B6903F070027B681B6B013B1B0101
:1028D0009A4223D17B6903F4FE427B685B6B1B0247
:1028E0009A421BD17B6903F078427B689B6BDB06C5
:1028F0009A4213D17B6903F4C0027B68DB6B5B08EF
:10290000013B5B059A4209D17B6903F0C0627B6899
:102910001B6C5B08013B5B069A4201D0012300E07F
:10292000002318462037BD4680BD00BF001002407E
:102930008C809D0180B584B000AF786039607B6881
:10294000002B01D10123C8E0664B1B6803F007038D
:102950003A689A4210D9634B1B6823F00702614919
:102960003B6813430B605F4B1B6803F007033A6837
:102970009A4201D00123B0E07B681B6803F0010399
:10298000002B4CD07B685B68032B07D1564B1B6830
:1029900003F00073002B21D101239EE07B685B686C
:1029A000022B07D1504B1B6803F40033002B15D1C9
:1029B000012392E07B685B68002B07D14A4B1B68C0
:1029C00003F00203002B09D1012386E0464B1B686C
:1029D00003F48063002B01D101237EE0424B9B680E
:1029E00023F003027B685B683F4913438B60FEF76B
:1029F000B1FAF8600AE0FEF7ADFA0246FB68D31AB6
:102A000041F28832934201D9032366E0364B9B683A
:102A100003F00C027B685B689B009A42EBD17B68F9
:102A20001B6803F00203002B08D02F4B9B6823F098
:102A3000F0027B689B682C4913438B60294B1B6811
:102A400003F007033A689A4210D2264B1B6823F022
:102A5000070224493B6813430B60224B1B6803F0B9
:102A600007033A689A4201D0012336E07B681B686D
:102A700003F00403002B08D01B4B9B6823F4E06297
:102A80007B68DB68184913438B607B681B6803F025
:102A90000803002B09D0144B9B6823F460527B6819
:102AA0001B69DB00104913438B6000F025F80146D9
:102AB0000D4B9B681B0903F00F030C4AD35C03F01A
:102AC0001F0321FA03F30A4A13600A4B1B681846D6
:102AD0000AF0F8FF0346FB72FB7A18461037BD4632
:102AE00080BD00BF002002400010024078F50008C1
:102AF0003C0100200000002080B489B000AF00231A
:102B0000FB610023BB613D4B9B6803F00C033B6101
:102B10003A4BDB6803F00303FB603B69002B05D0F5
:102B20003B690C2B21D1FB68012B1ED1334B1B6859
:102B300003F00803002B07D1304BD3F894301B0A65
:102B400003F00F03FB6105E02C4B1B681B0903F02E
:102B50000F03FB612A4AFB6952F82330FB613B6992
:102B6000002B0DD1FB69BB610AE03B69042B02D14C
:102B7000244BBB6104E03B69082B01D1224BBB61B4
:102B80003B690C2B33D11D4BDB6803F00303BB60A7
:102B9000BB68022B02D0032B03D005E0194B7B61ED
:102BA00005E0194B7B6102E0FB697B6100BF134BC1
:102BB000DB681B0903F0070301337B600F4BDB6805
:102BC0001B0A03F07F037A6902FB03F27B68B2FB06
:102BD000F3F37B61094BDB685B0E03F00303013306
:102BE0005B003B607A693B68B2FBF3F3BB61BB6996
:102BF00018462437BD465DF8047B7047001002403C
:102C000090F500080024F400001BB70080B400AF6A
:102C1000034B1B681846BD465DF8047B704700BF38
:102C20003C01002080B500AFFFF7F0FF0146064BE6
:102C30009B681B0A03F00703044AD35C03F01F03DD
:102C400021FA03F3184680BD0010024088F5000801
:102C500080B500AFFFF7DAFF0146064B9B68DB0A41
:102C600003F00703044AD35C03F01F0321FA03F3C4
:102C7000184680BD0010024088F5000880B483B07B
:102C800000AF786039607B680F221A60124B9B6836
:102C900003F003027B685A600F4B9B6803F0F0025D
:102CA0007B689A600C4B9B6803F4E0627B68DA6097
:102CB000094B9B68DB0803F4E0627B681A61074BF1
:102CC0001B6803F007023B681A6000BF0C37BD4663
:102CD0005DF8047B704700BF0010024000200240F6
:102CE00080B586B000AF786000233B612A4B9B6DB6
:102CF00003F08053002B03D0FFF710F8786114E045
:102D0000254B9B6D244A43F080539365224B9B6D6A
:102D100003F08053FB60FB68FFF700F878611E4BFF
:102D20009B6D1D4A23F0805393657B69B3F5007F4B
:102D30000BD17B68802B19D97B68A02B02D9022389
:102D40003B6113E001233B6110E07B68802B02D9DB
:102D500003233B610AE07B68802B02D102233B61A5
:102D600004E07B68702B01D101233B610B4B1B6896
:102D700023F0070209493B6913430B60074B1B68AB
:102D800003F007033A699A4201D0012300E00023CF
:102D900018461837BD4680BD001002400020024092
:102DA00080B586B000AF78600023FB740023BB744D
:102DB0007B681B6803F40063002B2FD07B685B6C7F
:102DC000B3F5000F05D0B3F5400F15D0002B07D099
:102DD0000FE05D4BDB685C4A43F48033D3600CE06A
:102DE0007B6804330021184600F01EFA0346FB748A
:102DF00003E00123FB7400E000BFFB7C002B0BD140
:102E0000514BD3F8883023F440027B685B6C4E4909
:102E10001343C1F8883001E0FB7CBB747B681B68FE
:102E200003F40033002B00F09E8000237B74464B9C
:102E30009B6D03F08053002B01D1012300E00023A0
:102E4000002B0DD0404B9B6D3F4A43F08053936560
:102E50003D4B9B6D03F08053BB60BB6801237B74CB
:102E60003A4B1B68394A43F480731360FEF772F8DB
:102E7000F86009E0FEF76EF80246FB68D31A022BF1
:102E800002D90323FB7405E0304B1B6803F4807305
:102E9000002BEFD0FB7C002B5AD12B4BD3F890307A
:102EA00003F440737B617B69002B1ED07B68DB6D74
:102EB0007A699A4219D0244BD3F8903023F44073A6
:102EC0007B61214BD3F890301F4A43F48033C2F822
:102ED00090301D4BD3F890301B4A23F48033C2F856
:102EE0009030194A7B69C2F890307B6903F0010386
:102EF000002B16D0FEF72EF8F8600BE0FEF72AF84C
:102F00000246FB68D31A41F28832934202D9032366
:102F1000FB7406E00C4BD3F8903003F00203002B57
:102F2000ECD0FB7C002B0BD1074BD3F8903023F473
:102F300040727B68DB6D04491343C1F8903009E0AF
:102F4000FB7CBB7406E000BF001002400070004034
:102F5000FB7CBB747B7C012B05D1B24B9B6DB14AD2
:102F600023F0805393657B681B6803F00103002BFB
:102F70000AD0AC4BD3F8883023F003027B681B6A7D
:102F8000A8491343C1F888307B681B6803F002032B
:102F9000002B0AD0A34BD3F8883023F00C027B68B7
:102FA0005B6AA0491343C1F888307B681B6803F053
:102FB0000403002B0AD09B4BD3F8883023F0300257
:102FC0007B689B6A97491343C1F888307B681B680C
:102FD00003F02003002B0AD0924BD3F8883023F45F
:102FE00040627B68DB6A8F491343C1F888307B6895
:102FF0001B6803F40073002B0AD08A4BD3F8883087
:1030000023F440227B68DB6B86491343C1F8883088
:103010007B681B6803F48063002B0AD0814BD3F8D4
:10302000883023F440127B681B6C7E491343C1F83F
:1030300088307B681B6803F04003002B0AD0794B73
:10304000D3F8883023F440527B681B6B75491343D7
:10305000C1F888307B681B6803F08003002B0AD01E
:10306000704BD3F8883023F440427B685B6B6D492A
:103070001343C1F888307B681B6803F48073002B0E
:103080000AD0684BD3F8883023F440327B689B6BBE
:1030900064491343C1F888307B681B6803F400530C
:1030A000002B28D05F4BD3F8883023F040627B6838
:1030B0009B6C5C491343C1F888307B689B6CB3F10F
:1030C000006F06D1574BDB68564A43F48013D36038
:1030D00011E07B689B6CB3F1806F0CD17B6804338B
:1030E0000121184600F0A0F80346FB74FB7C002B7E
:1030F00001D0FB7CBB747B681B6803F40023002BAE
:1031000028D0484BD3F8883023F040627B68DB6CD2
:1031100044491343C1F888307B68DB6CB3F1006F1E
:1031200006D1404BDB683F4A43F48013D36011E083
:103130007B68DB6CB3F1806F0CD17B6804330121B9
:10314000184600F071F80346FB74FB7C002B01D09D
:10315000FB7CBB747B681B6803F48023002B28D0A6
:10316000304BD3F8883023F040627B681B6D2D49CB
:103170001343C1F888307B681B6DB3F1006F06D133
:10318000284BDB68274A43F48013D36011E07B6847
:103190001B6DB3F1806F0CD17B680433012118469D
:1031A00000F042F80346FB74FB7C002B01D0FB7C53
:1031B000BB747B681B6803F48043002B1CD0194B45
:1031C000D3F8883023F040527B685B6D1549134378
:1031D000C1F888307B685B6DB3F1805F0CD17B6890
:1031E00004330221184600F01FF80346FB74FB7CF1
:1031F000002B01D0FB7CBB747B681B6803F400438D
:10320000002B0AD0074BD3F8883023F080427B682C
:103210009B6D04491343C1F88830BB7C18461837AE
:10322000BD4680BD0010024080B584B000AF78601C
:1032300039600023FB73734BDB6803F00303002B3F
:1032400018D0704BDB6803F003027B681B689A425E
:103250000DD17B681B68002B09D06A4BDB681B090A
:1032600003F007035A1C7B685B689A4244D0012331
:10327000FB7341E07B681B68022B0CD0032B13D03F
:10328000012B20D15F4B1B6803F00203002B1DD1E3
:103290000123FB731AE05B4B1B6803F48063002B74
:1032A00016D10123FB7313E0564B1B6803F4003364
:1032B000002B0FD1534B1B6803F48023002B09D143
:1032C0000123FB7306E00123FB7304E000BF02E06F
:1032D00000BF00E000BFFB7B002B0DD1494BDB683A
:1032E00023F073027B6819687B685B68013B1B01F4
:1032F0000B4344491343CB60FB7B002B7CD1414BF8
:103300001B68404A23F080631360FDF723FEB8601A
:1033100009E0FDF71FFE0246BB68D31A022B02D953
:103320000323FB7305E0374B1B6803F00063002B9E
:10333000EFD1FB7B002B5FD13B68002B10D1314BD1
:103340001B6923F0784323F4FE437A6892681102E4
:103350007A68D268D2060A432A4913430B6127E0F0
:103360003B68012B12D1274B1B6923F4C00323F4C4
:10337000FE437A68926811027A6812695208013A2B
:1033800052050A431F4913430B6111E01D4B1B6992
:1033900023F0C06323F4FE437A68926811027A68CE
:1033A00052695208013A52060A43164913430B6107
:1033B000144B1B68134A43F080631360FDF7CAFD8A
:1033C000B86009E0FDF7C6FD0246BB68D31A022BC0
:1033D00002D90323FB7305E00A4B1B6803F000636B
:1033E000002BEFD0FB7B002B06D1064B1A697B68C4
:1033F0009B69044913430B61FB7B18461037BD469C
:1034000080BD00BF0010024080B584B000AF78607E
:103410007B68002B01D101237CE07B6800229A624B
:103420007B6893F85D30DBB2002B06D17B6800220D
:1034300083F85C2078680AF037F97B68022283F809
:103440005D207B681B681A687B681B6822F040025D
:103450001A607B68DB68B3F5E06F02D90023FB607C
:1034600002E04FF48053FB607B68DB68B3F5706F5C
:1034700007D07B68DB68B3F5E06F02D07B68002281
:103480009A627B681B6B002B0BD17B68DB68B3F502
:10349000E06F03D97B6802221A6302E07B68012295
:1034A0001A637B685A687B689B681A437B681B6950
:1034B0001A437B685B691A437B689B6903F400735A
:1034C0001A437B68DB691A437B681B6A42EA030183
:1034D0007B689A6A7B681B680A431A607B689B69F1
:1034E0001B0C03F004027B685B6A1A437B685B6B0E
:1034F0001A437B68DB6842EA03017B681B68FA6851
:103500000A435A607B6800221A667B68012283F8AE
:103510005D20002318461037BD4680BD80B588B0B9
:1035200000AFF860B9603B601346FB800023FB7777
:10353000FB6893F85C30012B01D1022350E1FB685A
:10354000012283F85C20FDF705FDB861FB88FB8252
:10355000FB6893F85D30DBB2012B02D00223FB77CE
:1035600035E1BB68002B02D0FB88002B02D1012380
:10357000FB772CE1FB68032283F85D20FB680022C7
:103580001A66FB68BA689A63FB68FA889A87FB68D0
:10359000FA88DA87FB6800221A64FB680022A3F825
:1035A0004420FB680022A3F84620FB6800221A652D
:1035B000FB680022DA64FB689B68B3F5004F07D113
:1035C000FB681B681A68FB681B6842F480421A603B
:1035D000FB681B681B6803F04003402B07D0FB68A7
:1035E0001B681A68FB681B6842F040021A60FB689F
:1035F000DB68B3F5E06F4BD9FB685B68002B02D04A
:10360000FB8A012B3ED1FB689B6B1A88FB681B6809
:10361000DA60FB689B6B9A1CFB689A63FB68DB8F24
:103620009BB2013B9AB2FB68DA872BE0FB681B6810
:103630009B6803F00203022B12D1FB689B6B1A8874
:10364000FB681B68DA60FB689B6B9A1CFB689A63DB
:10365000FB68DB8F9BB2013B9AB2FB68DA8711E013
:10366000FDF778FC0246BB69D31A3A689A4203D840
:103670003B68B3F1FF3F02D13B68002B02D103232B
:10368000FB77A4E0FB68DB8F9BB2002BCED17CE004
:10369000FB685B68002B02D0FB8A012B70D1FB68B2
:1036A000DB8F9BB2012B12D9FB689B6B1A88FB68DE
:1036B0001B68DA60FB689B6B9A1CFB689A63FB686B
:1036C000DB8F9BB2023B9AB2FB68DA8758E0FB685B
:1036D0009A6BFB681B680C3312781A70FB689B6B43
:1036E0005A1CFB689A63FB68DB8F9BB2013B9AB262
:1036F000FB68DA8744E0FB681B689B6803F0020301
:10370000022B2BD1FB68DB8F9BB2012B12D9FB68FC
:103710009B6B1A88FB681B68DA60FB689B6B9A1CC2
:10372000FB689A63FB68DB8F9BB2023B9AB2FB6833
:10373000DA8725E0FB689A6BFB681B680C3312780C
:103740001A70FB689B6B5A1CFB689A63FB68DB8FE3
:103750009BB2013B9AB2FB68DA8711E0FDF7FAFBF6
:103760000246BB69D31A3A689A4203D83B68B3F160
:10377000FF3F02D13B68002B02D10323FB7726E0F9
:10378000FB68DB8F9BB2002BB5D1BA693968F8684A
:1037900000F0B4FD0346002B02D0FB6820221A661D
:1037A000FB689B68002B0AD100233B61FB681B6808
:1037B000DB683B61FB681B689B683B613B69FB689E
:1037C0001B6E002B02D00123FB7700E000BFFB68DB
:1037D000012283F85D20FB68002283F85C20FB7FD8
:1037E00018462037BD4680BD80B588B002AFF8606E
:1037F000B9603B601346FB800023FB75FB685B6888
:10380000B3F5827F12D1FB689B68002B0ED1FB6859
:10381000042283F85D20FA883B6800931346BA6857
:10382000B968F86800F008F9034601E1FB6893F80D
:103830005C30012B01D10223FAE0FB68012283F8FE
:103840005C20FDF787FB3861FB6893F85D30DBB2E5
:10385000012B02D00223FB75E1E0BB68002B02D0F4
:10386000FB88002B02D10123FB75D8E0FB68042202
:1038700083F85D20FB6800221A66FB68BA681A6448
:10388000FB68FA88A3F84420FB68FA88A3F846206E
:10389000FB6800229A63FB6800229A87FB6800227B
:1038A000DA87FB680022DA64FB6800221A65FB688D
:1038B000DB68B3F5E06F08D9FB681B685A68FB68E2
:1038C0001B6822F480525A6007E0FB681B685A6844
:1038D000FB681B6842F480525A60FB689B68B3F532
:1038E000004F07D1FB681B681A68FB681B6822F44D
:1038F00080421A60FB681B681B6803F04003402B82
:1039000007D0FB681B681A68FB681B6842F040021E
:103910001A60FB68DB68B3F5E06F67D830E0FB68DE
:103920001B689B6803F00103012B17D1FB681B6820
:1039300003F10C02FB681B6C1278D2B21A70FB68A0
:103940001B6C5A1CFB681A64FB68B3F846309BB2C8
:10395000013B9AB2FB68A3F8462011E0FDF7FAFAA2
:1039600002463B69D31A3A689A4203D83B68B3F1DE
:10397000FF3F02D13B68002B02D10323FB754EE0D1
:10398000FB68B3F846309BB2002BC8D134E0FB682B
:103990001B689B6803F00103012B15D1FB681B68B2
:1039A000DA68FB681B6C92B21A80FB681B6C9A1C6D
:1039B000FB681A64FB68B3F846309BB2013B9AB2CD
:1039C000FB68A3F8462011E0FDF7C4FA02463B6904
:1039D000D31A3A689A4203D83B68B3F1FF3F02D149
:1039E0003B68002B02D10323FB7518E0FB68B3F89A
:1039F00046309BB2002BCAD13A693968F86800F0AA
:103A000025FC0346002B02D0FB6820221A66FB68C7
:103A10001B6E002B02D00123FB7500E000BFFB688A
:103A2000012283F85D20FB68002283F85C20FB7D87
:103A300018461837BD4680BD80B58AB000AFF86023
:103A4000B9607A607B8001237B62002387F8233092
:103A5000FB6893F85C30012B01D10223FBE1FB688A
:103A6000012283F85C20FDF775FAF861FB6893F892
:103A70005D30FB76FB685B687B617B887B827B8843
:103A80003B82FB7E012B0ED07B69B3F5827F06D192
:103A9000FB689B68002B02D1FB7E042B03D0022322
:103AA00087F82330CDE1BB68002B05D07B68002B65
:103AB00002D07B88002B03D1012387F82330C0E19B
:103AC000FB6893F85D30DBB2042B03D0FB68052262
:103AD00083F85D20FB6800221A66FB687A681A6426
:103AE000FB687A88A3F84620FB687A88A3F844200C
:103AF000FB68BA689A63FB687A88DA87FB687A8819
:103B00009A87FB680022DA64FB6800221A65FB686A
:103B1000DB68B3F5E06F02D83B8A012B08D9FB685C
:103B20001B685A68FB681B6822F480525A6007E0E1
:103B3000FB681B685A68FB681B6842F480525A6035
:103B4000FB681B681B6803F04003402B07D0FB6831
:103B50001B681A68FB681B6842F040021A60FB6829
:103B6000DB68B3F5E06F7CD9FB685B68002B02D0A3
:103B70007B8A012B69D1FB689B6B1A88FB681B68E9
:103B8000DA60FB689B6B9A1CFB689A63FB68DB8FAF
:103B90009BB2013B9AB2FB68DA8756E0FB681B6870
:103BA0009B6803F00203022B1BD1FB68DB8F9BB2E7
:103BB000002B16D07B6A012B13D1FB689B6B1A88F4
:103BC000FB681B68DA60FB689B6B9A1CFB689A6356
:103BD000FB68DB8F9BB2013B9AB2FB68DA8700235C
:103BE0007B62FB681B689B6803F00103012B1CD1FF
:103BF000FB68B3F846309BB2002B16D0FB681B68FD
:103C0000DA68FB681B6C92B21A80FB681B6C9A1C0A
:103C1000FB681A64FB68B3F846309BB2013B9AB26A
:103C2000FB68A3F8462001237B62FDF793F9024667
:103C3000FB69D31A3A6B9A4207D83B6BB3F1FF3F4B
:103C400003D0032387F82330FBE0FB68DB8F9BB2B4
:103C5000002BA3D1FB68B3F846309BB2002B9DD15B
:103C6000DFE0FB685B68002B03D07B8A012B40F010
:103C7000CB80FB68DB8F9BB2012B12D9FB689B6B5F
:103C80001A88FB681B68DA60FB689B6B9A1CFB68F0
:103C90009A63FB68DB8F9BB2023B9AB2FB68DA87C0
:103CA000B2E0FB689A6BFB681B680C3312781A70E1
:103CB000FB689B6B5A1CFB689A63FB68DB8F9BB2AB
:103CC000013B9AB2FB68DA879EE0FB681B689B6841
:103CD00003F00203022B34D1FB68DB8F9BB2002B75
:103CE0002FD07B6A012B2CD1FB68DB8F9BB2012B81
:103CF00012D9FB689B6B1A88FB681B68DA60FB684B
:103D00009B6B9A1CFB689A63FB68DB8F9BB2023B40
:103D10009AB2FB68DA8712E0FB689A6BFB681B6853
:103D20000C3312781A70FB689B6B5A1CFB689A6301
:103D3000FB68DB8F9BB2013B9AB2FB68DA870023FA
:103D40007B62FB681B689B6803F00103012B48D171
:103D5000FB68B3F846309BB2002B42D0FB68B3F847
:103D600046309BB2012B23D9FB681B68DA68FB68DD
:103D70001B6C92B21A80FB681B6C9A1CFB681A645D
:103D8000FB68B3F846309BB2023B9AB2FB68A3F8DB
:103D90004620FB68B3F846309BB2012B1FD8FB6866
:103DA0001B685A68FB681B6842F480525A6016E030
:103DB000FB681B6803F10C02FB681B6C1278D2B223
:103DC0001A70FB681B6C5A1CFB681A64FB68B3F81A
:103DD00046309BB2013B9AB2FB68A3F84620012310
:103DE0007B62FDF7B7F80246FB69D31A3A6B9A4239
:103DF00003D83B6BB3F1FF3F02D13B6B002B03D1E8
:103E0000032387F823301CE0FB68DB8F9BB2002B79
:103E10007FF45BAFFB68B3F846309BB2002B7FF4B6
:103E200054AFFA69396BF86800F068FA0346002B62
:103E300006D0012387F82330FB6820221A6600E0B1
:103E400000BFFB68012283F85D20FB68002283F835
:103E50005C2097F8233018462837BD4680BD000007
:103E600080B588B000AF78607B681B685B68FB61D9
:103E70007B681B689B68BB61BB699B0903F00103FE
:103E8000002B0FD1BB6903F00103002B0AD0FB69A3
:103E90009B0903F00103002B04D07B68DB6C78687E
:103EA0009847D8E0BB695B0803F00103002B0AD0F8
:103EB000FB69DB0903F00103002B04D07B681B6D59
:103EC00078689847C7E0BB695B0903F00103002BE2
:103ED0000CD1BB699B0903F00103002B06D1BB6920
:103EE0001B0A03F00103002B00F0B580FB695B099E
:103EF00003F00103002B00F0AE80BB699B0903F0C7
:103F00000103002B23D07B6893F85D30DBB2032BD9
:103F100011D07B681B6E43F004027B681A66002395
:103F20007B617B681B68DB687B617B681B689B68C7
:103F30007B617B690BE000233B617B681B68DB686E
:103F40003B617B681B689B683B613B6983E0BB69A5
:103F50005B0903F00103002B14D07B681B6E43F058
:103F600001027B681A660023FB607B681B689B6804
:103F7000FB607B681B681A687B681B6822F0400244
:103F80001A60FB68BB691B0A03F00103002B0CD00D
:103F90007B681B6E43F008027B681A660023BB60D7
:103FA0007B681B689B68BB60BB687B681B6E002BD3
:103FB00050D07B681B685A687B681B6822F0E0025F
:103FC0005A607B68012283F85D20FB6903F00203DD
:103FD000002B04D1FB6903F00103002B34D07B6874
:103FE0001B685A687B681B6822F003025A607B6872
:103FF0009B6D002B11D07B689B6D184A9A637B6880
:104000009B6D1846FDF7ACF90346002B05D07B6885
:104010001B6E43F040027B681A667B685B6D002B69
:1040200016D07B685B6D0D4A9A637B685B6D1846A2
:10403000FDF796F90346002B0AD07B681B6E43F010
:1040400040027B681A6603E0786800F009F800E037
:1040500000BF00BF00BF2037BD4680BD75400008CF
:1040600080B483B000AF786000BF0C37BD465DF808
:10407000047B704780B584B000AF78607B689B6A32
:10408000FB60FB680022A3F84620FB680022DA8769
:10409000F868FFF7E5FF00BF1037BD4680BD80B56B
:1040A00084B000AFF860B9603B601346FB714CE030
:1040B0003B68B3F1FF3F48D0FCF74CFF0246BB69B9
:1040C000D31A3A689A4202D93B68002B3DD1FB686B
:1040D0001B685A68FB681B6822F0E0025A60FB68A4
:1040E0005B68B3F5827F11D1FB689B68B3F5004F25
:1040F00004D0FB689B68B3F5806F07D1FB681B6831
:104100001A68FB681B6822F040021A60FB689B6A11
:10411000B3F5005F0FD1FB681B681A68FB681B686A
:1041200022F400521A60FB681B681A68FB681B685F
:1041300042F400521A60FB68012283F85D20FB689C
:10414000002283F85C2003230FE0FB681B689A6859
:10415000BB681340BA689A420CBF01230023DBB24C
:104160001A46FB799A42A3D1002318461037BD4660
:1041700080BD80B584B000AFF860B9607A603B6004
:1041800057E0BB68B3F5C06F06D17B68002B03D145
:10419000FB681B680C331B783B68B3F1FF3F48D0CA
:1041A000FCF7D8FE0246BB69D31A3A689A4202D994
:1041B0003B68002B3DD1FB681B685A68FB681B6895
:1041C00022F0E0025A60FB685B68B3F5827F11D190
:1041D000FB689B68B3F5004F04D0FB689B68B3F5A0
:1041E000806F07D1FB681B681A68FB681B6822F0A8
:1041F00040021A60FB689B6AB3F5005F0FD1FB6851
:104200001B681A68FB681B6822F400521A60FB687E
:104210001B681A68FB681B6842F400521A60FB684E
:10422000012283F85D20FB68002283F85C200323D1
:1042300008E0FB681B689A68BB6813407A689A427A
:104240009FD1002318461037BD4680BD80B586B08B
:1042500002AFF860B9607A60FB685B68B3F5827F93
:1042600011D1FB689B68B3F5004F04D0FB689B68D5
:10427000B3F5806F07D1FB681B681A68FB681B6881
:1042800022F040021A607B680093BB680022802104
:10429000F868FFF704FF0346002B07D0FB681B6E8E
:1042A00043F02002FB681A66032323E0FB685B6887
:1042B000B3F5827F1DD1FB689B68B3F5004F04D036
:1042C000FB689B68B3F5806F13D17B680093BB6874
:1042D00000224FF4C061F868FFF74BFF0346002B44
:1042E00007D0FB681B6E43F02002FB681A660323AD
:1042F00000E0002318461037BD4680BD80B586B06B
:1043000002AFF860B9607A607B680093BB680022F6
:104310004FF4C051F868FFF72CFF0346002B07D07D
:10432000FB681B6E43F02002FB681A66032327E03C
:104330007B680093BB6800228021F868FFF7AFFE1E
:104340000346002B07D0FB681B6E43F02002FB687E
:104350001A66032314E07B680093BB6800224FF4C5
:10436000C061F868FFF705FF0346002B07D0FB6824
:104370001B6E43F02002FB681A66032300E0002353
:1043800018461037BD4680BD80B582B000AF78605A
:104390007B68002B01D101231DE07B6893F83D3041
:1043A000DBB2002B06D17B68002283F83C207868C2
:1043B00009F022FA7B68022283F83D207B681A68A4
:1043C0007B6804331946104600F024FE7B68012206
:1043D00083F83D20002318460837BD4680BD000005
:1043E00080B485B000AF78607B681B68DA687B6852
:1043F0001B6842F00102DA607B681B689A680C4B0C
:104400001340FB60FB68062B0BD0FB68B3F5803FC5
:1044100007D07B681B681A687B681B6842F0010242
:104420001A60002318461437BD465DF8047B7047B8
:104430000700010080B483B000AF78607B681B6820
:10444000DA687B681B6822F00102DA607B681B680F
:104450001A6A41F211131340002B0FD17B681B68BD
:104460001A6A40F244431340002B07D17B681B6853
:104470001A687B681B6822F001021A600023184644
:104480000C37BD465DF8047B704780B582B000AF45
:1044900078607B68002B01D101231DE07B6893F8D5
:1044A0003D30DBB2002B06D17B68002283F83C2034
:1044B000786809F007FA7B68022283F83D207B6860
:1044C0001A687B6804331946104600F0A3FD7B6828
:1044D000012283F83D20002318460837BD4680BDE1
:1044E00080B582B000AF786039603B680C2B41D852
:1044F00001A252F823F000BF2D45000875450008C1
:1045000075450008754500083F45000875450008D9
:1045100075450008754500085145000875450008B7
:104520007545000875450008634500087B681B68F1
:10453000DA687B681B6822F00202DA601BE07B68A5
:104540001B68DA687B681B6822F00402DA6012E0FC
:104550007B681B68DA687B681B6822F00802DA60F7
:1045600009E07B681B68DA687B681B6822F0100230
:10457000DA6000E000BF7B681B68002239681846DB
:1045800001F0D0F97B681B68234A934209D07B680D
:104590001B68224A934204D07B681B68204A9342DE
:1045A00001D1012300E00023002B17D07B681B689A
:1045B0001A6A41F211131340002B0FD17B681B685C
:1045C0001A6A40F244431340002B07D17B681B68F2
:1045D0005A6C7B681B6822F400425A647B681B6833
:1045E0001A6A41F211131340002B0FD17B681B682C
:1045F0001A6A40F244431340002B07D17B681B68C2
:104600001A687B681B6822F001021A6000231846B2
:104610000837BD4680BD00BF002C0140004001406E
:104620000044014080B582B000AF78607B68002B09
:1046300001D101231DE07B6893F83D30DBB2002BF4
:1046400006D17B68002283F83C20786800F015F8DA
:104650007B68022283F83D207B681A687B680433FC
:104660001946104600F0D6FC7B68012283F83D20F5
:10467000002318460837BD4680BD80B483B000AF24
:10468000786000BF0C37BD465DF8047B704780B58D
:1046900082B000AF78607B68002B01D101231DE060
:1046A0007B6893F83D30DBB2002B06D17B6800229B
:1046B00083F83C20786800F015F87B68022283F8C4
:1046C0003D207B681A687B6804331946104600F069
:1046D000A1FC7B68012283F83D200023184608379F
:1046E000BD4680BD80B483B000AF786000BF0C379A
:1046F000BD465DF8047B704780B584B000AF78603C
:1047000039603B680C2B41D801A252F823F000BF5E
:10471000454700088D4700088D4700088D47000871
:10472000574700088D4700088D4700088D4700084F
:10473000694700088D4700088D4700088D4700082D
:104740007B4700087B681B68DA687B681B6842F05F
:104750000202DA601BE07B681B68DA687B681B6812
:1047600042F00402DA6012E07B681B68DA687B685A
:104770001B6842F00802DA6009E07B681B68DA68AF
:104780007B681B6842F01002DA6000E000BF7B68C3
:104790001B6801223968184601F0C4F87B681B6861
:1047A0009A680B4B1340FB60FB68062B0BD0FB6831
:1047B000B3F5803F07D07B681B681A687B681B686D
:1047C00042F001021A60002318461037BD4680BD32
:1047D0000700010080B582B000AF78607B681B687D
:1047E0001B6903F00203022B22D17B681B68DB6884
:1047F00003F00203022B1BD17B681B686FF00202DF
:104800001A617B6801221A777B681B689B6903F039
:104810000303002B03D0786802F0DAFA05E0786829
:1048200002F006FB786800F0E0FB7B6800221A7754
:104830007B681B681B6903F00403042B22D17B688F
:104840001B68DB6803F00403042B1BD17B681B6827
:104850006FF004021A617B6802221A777B681B687A
:104860009B6903F44073002B03D0786802F0B0FA20
:1048700005E0786802F0DCFA786800F0B6FB7B6847
:1048800000221A777B681B681B6903F00803082B5A
:1048900022D17B681B68DB6803F00803082B1BD15F
:1048A0007B681B686FF008021A617B6804221A7724
:1048B0007B681B68DB6903F00303002B03D0786877
:1048C00002F086FA05E0786802F0B2FA786800F043
:1048D0008CFB7B6800221A777B681B681B6903F0DE
:1048E0001003102B22D17B681B68DB6803F01003D8
:1048F000102B1BD17B681B686FF010021A617B685C
:1049000008221A777B681B68DB6903F44073002B6D
:1049100003D0786802F05CFA05E0786802F088FA63
:10492000786800F062FB7B6800221A777B681B685E
:104930001B6903F00103012B0ED17B681B68DB6848
:1049400003F00103012B07D17B681B686FF00102A4
:104950001A61786808F042FE7B681B681B6903F0E7
:104960008003802B0ED17B681B68DB6803F080031B
:10497000802B07D17B681B686FF080021A61786812
:1049800001F0CEF87B681B681B6903F48073B3F5F4
:10499000807F0ED17B681B68DB6803F08003802B6F
:1049A00007D17B681B686FF480721A61786801F028
:1049B000C1F87B681B681B6903F04003402B0ED1D4
:1049C0007B681B68DB6803F04003402B07D17B68E2
:1049D0001B686FF040021A61786800F010FB7B687A
:1049E0001B681B6903F02003202B0ED17B681B681A
:1049F000DB6803F02003202B07D17B681B686FF076
:104A000020021A61786801F081F800BF0837BD46BE
:104A100080BD000080B584B000AFF860B9607A60F6
:104A2000FB6893F83C30012B01D102236CE0FB685A
:104A3000012283F83C20FB68022283F83D207B683A
:104A4000142B57D801A252F823F000BFA14A000846
:104A5000F54A0008F54A0008F54A0008AF4A000880
:104A6000F54A0008F54A0008F54A0008BD4A000862
:104A7000F54A0008F54A0008F54A0008CB4A000844
:104A8000F54A0008F54A0008F54A0008D94A000826
:104A9000F54A0008F54A0008F54A0008E74A000808
:104AA000FB681B68B968184600F018FB23E0FB6838
:104AB0001B68B968184600F08DFB1CE0FB681B689A
:104AC000B968184600F000FC15E0FB681B68B9687F
:104AD000184600F071FC0EE0FB681B68B9681846C8
:104AE00000F0C8FC07E0FB681B68B968184600F0D6
:104AF00019FD00E000BFFB68012283F83D20FB6840
:104B0000002283F83C20002318461037BD4680BDA4
:104B100080B584B000AFF860B9607A60FB6893F844
:104B20003C30012B01D102238AE0FB68012283F88B
:104B30003C20FB68022283F83D207B68002B1BD1C0
:104B4000FB681868BB681968BB685A68BB68DB6893
:104B500000F042FDFB681B689A69FB681B6822F045
:104B60000C029A61FB681B689969BB689A68FB68CC
:104B70001B680A439A615AE07B68042B1CD1FB68CE
:104B80001868BB681968BB685A68BB68DB6800F0C6
:104B9000A8FDFB681B689A69FB681B6822F44062E9
:104BA0009A61FB681B689969BB689B681A02FB687D
:104BB0001B680A439A613AE07B68082B1BD1FB68AB
:104BC0001868BB681968BB685A68BB68DB6800F086
:104BD000F5FDFB681B68DA69FB681B6822F00C02B4
:104BE000DA61FB681B68D969BB689A68FB681B6857
:104BF0000A43DA611BE0FB681868BB681968BB6888
:104C00005A68BB68DB6800F015FEFB681B68DA6950
:104C1000FB681B6822F44062DA61FB681B68D96993
:104C2000BB689B681A02FB681B680A43DA61FB6871
:104C3000012283F83D20FB68002283F83C200023FA
:104C400018461037BD4680BD80B584B000AFF8600F
:104C5000B9607A60FB6893F83C30012B01D10223E4
:104C600005E1FB68012283F83C20FB68022283F8FF
:104C70003D207B68142B00F2F08001A252F823F053
:104C8000D54C00085B4E00085B4E00085B4E0008E8
:104C9000154D00085B4E00085B4E00085B4E000897
:104CA000574D00085B4E00085B4E00085B4E000845
:104CB000974D00085B4E00085B4E00085B4E0008F5
:104CC000D94D00085B4E00085B4E00085B4E0008A3
:104CD000194E0008FB681B68B968184600F0FEF919
:104CE000FB681B689A69FB681B6842F008029A61BE
:104CF000FB681B689A69FB681B6822F004029A61D2
:104D0000FB681B689969BB681A69FB681B680A43E2
:104D10009A61A3E0FB681B68B968184600F05AFA6C
:104D2000FB681B689A69FB681B6842F400629A6121
:104D3000FB681B689A69FB681B6822F480629A61B1
:104D4000FB681B689969BB681B691A02FB681B68D2
:104D50000A439A6182E0FB681B68B968184600F054
:104D6000B3FAFB681B68DA69FB681B6842F008024B
:104D7000DA61FB681B68DA69FB681B6822F00402D1
:104D8000DA61FB681B68D969BB681A69FB681B6834
:104D90000A43DA6162E0FB681B68B968184600F0F4
:104DA0000BFBFB681B68DA69FB681B6842F4006256
:104DB000DA61FB681B68DA69FB681B6822F48062B1
:104DC000DA61FB681B68D969BB681B691A02FB685A
:104DD0001B680A43DA6141E0FB681B68B968184642
:104DE00000F048FBFB681B685A6DFB681B6842F0CB
:104DF00008025A65FB681B685A6DFB681B6822F045
:104E000004025A65FB681B68596DBB681A69FB6828
:104E10001B680A435A6521E0FB681B68B96818469D
:104E200000F080FBFB681B685A6DFB681B6842F44E
:104E300000625A65FB681B685A6DFB681B6822F4A8
:104E400080625A65FB681B68596DBB681B691A0252
:104E5000FB681B680A435A6500E000BFFB6801223B
:104E600083F83D20FB68002283F83C20002318468D
:104E70001037BD4680BD00BF80B584B000AF7860FC
:104E800039607B6893F83C30012B01D10223A8E004
:104E90007B68012283F83C207B68022283F83D2056
:104EA0007B681B689B68FB60FB6823F4803323F0FE
:104EB0007703FB60FB6823F47F43FB607B681B6820
:104EC000FA689A603B681B68402B67D0402B0BD870
:104ED000102B73D0102B02D8002B6FD078E0202B32
:104EE0006CD0302B6AD073E0702B0DD0702B04D8AF
:104EF000502B33D0602B41D06AE0B3F5805F66D091
:104F0000B3F5005F17D063E07B6818683B68996869
:104F10003B685A683B68DB6800F0E4FC7B681B6810
:104F20009B68FB60FB6843F07703FB607B681B6852
:104F3000FA689A604CE07B6818683B6899683B683F
:104F40005A683B68DB6800F0CDFC7B681B689A6898
:104F50007B681B6842F480429A6039E07B6818687D
:104F60003B6859683B68DB681A4600F08BFB7B683E
:104F70001B685021184600F09AFC29E07B681868ED
:104F80003B6859683B68DB681A4600F0E7FB7B68C2
:104F90001B686021184600F08AFC19E07B681868DD
:104FA0003B6859683B68DB681A4600F06BFB7B681E
:104FB0001B684021184600F07AFC09E07B681A68FB
:104FC0003B681B681946104600F071FC00E000BF0A
:104FD0007B68012283F83D207B68002283F83C2017
:104FE000002318461037BD4680BD80B483B000AFA3
:104FF000786000BF0C37BD465DF8047B704780B415
:1050000083B000AF786000BF0C37BD465DF8047B0D
:105010007047000080B485B000AF786039607B686D
:105020001B68FB607B682A4A934203D07B68B3F11C
:10503000804F08D1FB6823F07003FB603B685B681E
:10504000FA681343FB607B68214A93420BD07B686C
:10505000B3F1804F07D07B681E4A934203D07B6830
:105060001D4A934208D1FB6823F44073FB603B6800
:10507000DB68FA681343FB60FB6823F080023B683F
:105080005B691343FB607B68FA681A603B689A6847
:105090007B68DA623B681A687B689A627B680C4AB4
:1050A000934207D07B680B4A934203D07B680A4A3D
:1050B000934203D13B681A697B681A637B680122BB
:1050C0005A6100BF1437BD465DF8047B704700BFCE
:1050D000002C0140004001400044014080B487B0F2
:1050E00000AF786039607B681B6A23F001027B683F
:1050F0001A627B681B6A7B617B685B683B617B68CB
:105100009B69FB60FB6823F4803323F07003FB6032
:10511000FB6823F00303FB603B681B68FA681343DA
:10512000FB607B6923F002037B613B689B687A69C3
:1051300013437B617B68244A934207D07B68234AF0
:10514000934203D07B68224A93420CD17B6923F0BF
:1051500008037B613B68DB687A6913437B617B6989
:1051600023F004037B617B68174A934207D07B6876
:10517000164A934203D07B68154A934211D13B698A
:1051800023F480733B613B6923F400733B613B680C
:105190005B693A6913433B613B689B693A69134316
:1051A0003B617B683A695A607B68FA689A613B6840
:1051B0005A687B685A637B687A691A6200BF1C3739
:1051C000BD465DF8047B7047002C01400040014063
:1051D0000044014080B487B000AF786039607B68DC
:1051E0001B6A23F010027B681A627B681B6A7B6172
:1051F0007B685B683B617B689B69FB60FB6823F0B5
:10520000807323F4E043FB60FB6823F44073FB608E
:105210003B681B681B02FA681343FB607B6923F041
:1052200020037B613B689B681B017A6913437B61A8
:105230007B68224A93420DD17B6923F080037B6116
:105240003B68DB681B017A6913437B617B6923F050
:1052500040037B617B68194A934207D07B68184AF8
:10526000934203D07B68174A934213D13B6923F4DE
:1052700080633B613B6923F400633B613B685B698E
:105280009B003A6913433B613B689B699B003A6909
:1052900013433B617B683A695A607B68FA689A619C
:1052A0003B685A687B689A637B687A691A6200BFB8
:1052B0001C37BD465DF8047B704700BF002C0140E1
:1052C000004001400044014080B487B000AF7860E6
:1052D00039607B681B6A23F480727B681A627B6882
:1052E0001B6A7B617B685B683B617B68DB69FB6099
:1052F000FB6823F4803323F07003FB60FB6823F02A
:105300000303FB603B681B68FA681343FB607B691F
:1053100023F400737B613B689B681B027A6913432B
:105320007B617B68214A93420DD17B6923F4006342
:105330007B613B68DB681B027A6913437B617B6995
:1053400023F480637B617B68184A934207D07B68B3
:10535000174A934203D07B68164A934213D13B69A4
:1053600023F480533B613B6923F400533B613B686A
:105370005B691B013A6913433B613B689B691B01F5
:105380003A6913433B617B683A695A607B68FA6803
:10539000DA613B685A687B68DA637B687A691A620B
:1053A00000BF1C37BD465DF8047B7047002C0140F0
:1053B000004001400044014080B487B000AF7860F5
:1053C00039607B681B6A23F480527B681A627B68B1
:1053D0001B6A3B617B685B687B617B68DB69FB60A8
:1053E000FB6823F0807323F4E043FB60FB6823F445
:1053F0004073FB603B681B681B02FA681343FB6049
:105400003B6923F400533B613B689B681B033A698B
:1054100013433B617B68144A934207D07B68134A6D
:10542000934203D07B68124A934209D17B6923F4EB
:1054300080437B613B685B699B017A6913437B61B5
:105440007B687A695A607B68FA68DA613B685A68F7
:105450007B681A647B683A691A6200BF1C37BD46D4
:105460005DF8047B704700BF002C01400040014004
:105470000044014080B487B000AF786039607B6839
:105480001B6A23F480327B681A627B681B6A3B616B
:105490007B685B687B617B685B6DFB60FB6823F40A
:1054A000803323F07003FB603B681B68FA6813438A
:1054B000FB603B6923F400333B613B689B681B0442
:1054C0003A6913433B617B68134A934207D07B6878
:1054D000124A934203D07B68114A934209D17B69F7
:1054E00023F480337B613B685B691B027A69134359
:1054F0007B617B687A695A607B68FA685A653B68A9
:105500005A687B689A657B683A691A6200BF1C37E3
:10551000BD465DF8047B7047002C0140004001400F
:105520000044014080B487B000AF786039607B6888
:105530001B6A23F480127B681A627B681B6A3B61DA
:105540007B685B687B617B685B6DFB60FB6823F05D
:10555000807323F4E043FB603B681B681B02FA681E
:105560001343FB603B6923F400133B613B689B687A
:105570001B053A6913433B617B68144A934207D089
:105580007B68134A934203D07B68124A934209D145
:105590007B6923F480237B613B685B699B027A69AA
:1055A00013437B617B687A695A607B68FA685A6545
:1055B0003B685A687B68DA657B683A691A6200BFA3
:1055C0001C37BD465DF8047B704700BF002C0140CE
:1055D000004001400044014080B487B000AFF86053
:1055E000B9607A603B60FB681B6A23F00102FB68CC
:1055F0001A62FB689B697B61FB681B6A3B61FB6805
:105600001E4A934207D0FB68B3F1804F03D0FB687A
:105610001B4A934201D1012300E00023002B08D054
:105620007B6923F003037B617A697B6813437B61A9
:1056300003E07B6943F001037B617B6923F0F003A6
:105640007B613B681B01DBB27A6913437B613B6979
:1056500023F00A033B61BB6803F00A033A69134372
:105660003B61FB687A699A61FB683A691A6200BF1C
:105670001C37BD465DF8047B704700BF002C01401D
:105680000040014080B487B000AFF860B9607A6034
:10569000FB681B6A7B61FB681B6A23F00102FB68E5
:1056A0001A62FB689B693B613B6923F0F0033B6135
:1056B0007B681B013A6913433B617B6923F00A0352
:1056C0007B617A69BB6813437B61FB683A699A61C5
:1056D000FB687A691A6200BF1C37BD465DF8047B1F
:1056E000704780B487B000AFF860B9607A603B6003
:1056F000FB681B6A23F01002FB681A62FB689B6957
:105700007B61FB681B6A3B617B6923F440737B61AF
:105710007B681B027A6913437B617B6923F47043C6
:105720007B613B681B039BB27A6913437B613B69D6
:1057300023F0A0033B61BB681B0103F0A0033A699F
:1057400013433B61FB687A699A61FB683A691A62A4
:1057500000BF1C37BD465DF8047B704780B487B03E
:1057600000AFF860B9607A60FB681B6A23F0100232
:10577000FB681A62FB689B697B61FB681B6A3B6183
:105780007B6923F470437B617B681B037A69134355
:105790007B613B6923F0A0033B61BB681B013A6955
:1057A00013433B61FB687A699A61FB683A691A6244
:1057B00000BF1C37BD465DF8047B704780B487B0DE
:1057C00000AFF860B9607A603B60FB681B6A23F445
:1057D0008072FB681A62FB68DB697B61FB681B6A8D
:1057E0003B617B6923F003037B617A697B68134328
:1057F0007B617B6923F0F0037B613B681B01DBB2BB
:105800007A6913437B613B6923F420633B61BB6886
:105810001B0203F420633A6913433B61FB687A6916
:10582000DA61FB683A691A6200BF1C37BD465DF851
:10583000047B704780B487B000AFF860B9607A60CD
:105840003B60FB681B6A23F48052FB681A62FB68AA
:10585000DB697B61FB681B6A3B617B6923F44073F6
:105860007B617B681B027A6913437B617B6923F44C
:1058700070437B613B681B039BB27A6913437B6176
:105880003B6923F420433B61BB681B0303F42043C3
:105890003A6913433B61FB687A69DA61FB683A69EC
:1058A0001A6200BF1C37BD465DF8047B704780B4A8
:1058B00085B000AF786039607B689B68FB60FB68EF
:1058C00023F07003FB603A68FB68134343F007035F
:1058D000FB607B68FA689A6000BF1437BD465DF8CC
:1058E000047B704780B487B000AFF860B9607A601D
:1058F0003B60FB689B687B617B6923F47F437B6132
:105900003B681A027B681A43BB6813437A691343E6
:105910007B61FB687A699A6000BF1C37BD465DF801
:10592000047B704780B487B000AFF860B9607A60DC
:10593000BB6803F01F03012202FA03F37B61FB68DB
:105940001A6A7B69DB431A40FB681A62FB681A6AB1
:10595000BB6803F01F03796801FA03F31A43FB687D
:105960001A6200BF1C37BD465DF8047B704700001B
:1059700080B485B000AF786039607B6893F83C30C4
:10598000012B01D1022340E07B68012283F83C20F7
:105990007B68022283F83D207B681B685B68FB60A4
:1059A0007B681B689B68BB607B681B681A4A9342D4
:1059B00008D1FB6823F47003FB603B685B68FA68FE
:1059C0001343FB60FB6823F07003FB603B681B68BC
:1059D000FA681343FB60BB6823F08003BB603B683D
:1059E0009B68BA681343BB607B681B68FA685A609F
:1059F0007B681B68BA689A607B68012283F83D2047
:105A00007B68002283F83C20002318461437BD46EB
:105A10005DF8047B704700BF002C014080B485B066
:105A200000AF786039600023FB607B6893F83C30FE
:105A3000012B01D1022360E07B68012283F83C2026
:105A4000FB6823F0FF023B68DB681343FB60FB68E5
:105A500023F440723B689B681343FB60FB6823F4AC
:105A600080623B685B681343FB60FB6823F4006261
:105A70003B681B681343FB60FB6823F480523B6860
:105A80001B691343FB60FB6823F400523B685B69AE
:105A90001343FB60FB6823F480423B689B6A13431B
:105AA000FB60FB6823F470223B689B691B04134373
:105AB000FB607B681B68144A934215D1FB6823F492
:105AC00070023B685B6A1B051343FB60FB6823F0B5
:105AD00080723B68DB691343FB60FB6823F0007254
