:1000000000000120296800003168000049680000F4
:100010006168000061680000616800000000000085
:100020000000000000000000000000006168000007
:10003000616800000000000061680000E1510000FC
:10004000616800006168000061680000616800008C
:10005000616800006168000061680000616800007C
:10006000616800006168000061680000616800006C
:10007000616800006168000061680000616800005C
:10008000295200006168000061680000616800009A
:10009000616800006168000061680000616800003C
:1000A000D15200001923000061680000616800005F
:1000B00061680000E95100006168000061680000AB
:1000C0006168000099520000A15200001152000026
:1000D000F95100006168000061680000616800007B
:1000E00061680000616800006168000061680000EC
:1000F00061680000616800006168000061680000DC
:1001000061680000616800006168000061680000CB
:1001100061680000616800006168000061680000BB
:1001200061680000616800006168000061680000AB
:10013000616800006168000061680000616800009B
:0401400061680000F2
:100148002DE9F843089C582B804617460CBFA7A5F5
:10015800ABA5002908BFB8F1000F05D12068411EE2
:100168002160302707702AE04FEAE7793E460246C9
:10017800083E13D0083E0DD0002908BFB2F1FF3F5A
:1001880004D94B463A4605F022F90BE0B2FBF7F0EA
:10019800002107E008071209090902E04807D20808
:1001A800C9081043226800FB1783561E0029EB5C20
:1001B80026608046137008BFB8F1000FD6D12068BA
:1001C80006F066FC401EBDE8F883F8B50546A86849
:1001D8008C461446002804D4286820F010002860B3
:1001E80001E00120A8602F7BB7F1580007D017382D
:1001F80007D0401E03D0083818BF0A2202D11022A7
:1002080000E00822702F73D02E680020002106F429
:10021800EC66203E4CD0203E3DD0C03E25D0B6F501
:1002280080760CD0583F64D00C3F57D07F1F55D0F4
:10023800BF1F5ED0BF1F5CD0FF1E62D159E0583F80
:100248000AD00C3F4AD07F1F48D0BF1F04D0BF1F21
:1002580018BFB7F1030754D11868C01C20F0030079
:10026800001D186010F8040C4BE0583F0AD00C3FF2
:1002780008D07F1F06D0BF1F04D0BF1F18BFB7F11B
:1002880003073ED11868C01D20F007000830186029
:10029800083803C835E0583F2BD00C3F1ED07F1FCD
:1002A8001CD0BF1F25D0BF1F23D0FF1E29D120E09F
:1002B800583F0AD00C3F11D07F1F0FD0BF1F04D06A
:1002C800BF1F18BFB7F103071BD11868C01C20F067
:1002D8000300001D186030F8040C12E01868C01CF8
:1002E80020F00300001D186050F8040CC11708E046
:1002F80000211868C01C20F00300001D186050F889
:10030800040CAB68DE1741EA0607002F40EA030336
:1003180008BF002B02D12B681B093DD32B7B642B14
:1003280018BF692B09D1002907DA012700234042A9
:10033800CCF8007063EB01012B7B0094FFF700FF02
:10034800302103E02268531E23601170AA68401C04
:100358008242F7DA287B782803D0582818BF7028FB
:100368000ED12A6812090BD3702808BF782022689A
:10037800531E236010702068421E22600170287B83
:100388006F2809D12868000906D320684278302AE6
:1003980002D0421E22600170F8BD7CB505461446A5
:1003A8000E46002DD8BF684264230A22C117009464
:1003B800FFF7C6FE702E0BD0502E09D00A2D09DA91
:1003C80015F10A0F04DD2068411E216030230370F7
:1003D800002D01D42B2100E02D212068421E22602F
:1003E80001702068411E216006707CBD30313233B7
:1003F80034353637383941424344454600C046C053
:100408003031323334353637383961626364656682
:1004180000C0F8B51D4617460E46044606F038FBE0
:10042800324603460021002A284603DD9342A4BF32
:100438001119491E27B105686E1E06602E272F70F8
:10044800934208DAD71A30251A4603685E1E0660FA
:100458007F1E1D70F9D1002A0CDD8C420FD80F1BAE
:100468007F1C026811F80139541E04607F1E137046
:10047800F7D1F8BD01684A1E026030270F70F8BD39
:100488002DE9F04FADF16C0D4FF0000B58EC107BDF
:100498001A9080681991002802D004D5062000E03F
:1004A80001201A9988603021C8A68DF8001096E8B6
:1004B8000C00BA46471C5046414605F0ABFE38BF13
:1004C80088F000485C4612E03020087057E099E850
:1004D8000C0005F045FC641E884682460FE099E84A
:1004E8000C00504605F018FB641C88468246BBA2E7
:1004F8000CCA414605F0D1FE0FF2D829EFD396E891
:100508000C00504605F086FE09D0B6A20CCA50462B
:1005180005F080FE5D4638BF0125002DD7D1504635
:1005280006F0F7F805460DF1010106F005F800EBB5
:100538000D060419874206F1010619DD3F1A2846FF
:1005480006F00CFA0B4602464146504605F009FAF9
:1005580099E80C0005F004FC8846824606F0D9F8B4
:10056800054605F130007F1E06F8010BE7D101E0D2
:100578006F447E1C16F8010D34280BDD314611F846
:10058800010C401CC2B23A2A01F8010D9CDA6D46F2
:100598008D4204D058460DF10105307002E0641C0C
:1005A80006F801BC14F1030F08DB1A988068A04212
:1005B80013DA022CA4BF641EA34405DA002C04DC61
:1005C800C4F10104ABEB040B01241A98199A007BBF
:1005D800801EC1B25846FFF7E0FE284606F058FADA
:1005E8000027401E844217DC021B521C002803D43B
:1005F800295C302901D005E030211FB91A9B1B68FE
:100608001B0905D3199F3B685E1E3E6001271970C0
:10061800521EA0F10100E9D11A980068002200F0EA
:100628000800384318BF0122199B21462846FFF7C6
:10063800F0FE1BB0BDE8F08F2DE9FE4F5BEC10AB70
:100648000092D84661A28346029230208BF80000BF
:100658000BF1010401940CCA0F464146504605F0BF
:10066800D9FD38BF88F00048002512E03020087016
:1006780053E099E80C0005F073FB6D1E884682462E
:1006880010E099E80C00504605F046FA6D1C8846C3
:10069800824652A20CCA414605F0FFFD0FF23419FA
:1006A800EFD37F1C029A0CCA504605F0B3FD0AD05E
:1006B8004CA20CCA504605F0ADFD4FF0000638BFFD
:1006C8000126002ED5D1504606F023F806462146CD
:1006D80005F032FF041941190098EF19016017DD80
:1006E800304606F03BF90B4602464146504605F0B7
:1006F80038F999E80C0005F033FB8846824606F085
:1007080008F8064606F130007F1E04F8010BE7D111
:1007180014F8010D342810DD214611F8010C401C95
:10072800C2B23A2A01F8010DA0DA8B4505D1009929
:100738000868CDF804B0401C0860002101982170B9
:10074800BDE8FE8F2DE9F0430C460646B16853EC30
:10075800102BADF5FE7DADF1080D002944BF062133
:10076800B16001A8D4F8009043EC102B6A46FFF75B
:1007780063FFB568009F804606F08AF9E9196A1E8A
:10078800A1F1010110D4521C002904D48842C8BF29
:1007980018F8015000DC302523685F1E521E2760C0
:1007A800A1F101011D70EFD120680122484503D154
:1007B8003068000938BF0022009940462346FFF7F9
:1007C80028FE7FB002B0BDE8F083C04600000000FC
:1007D8000000000000000000000024400000C0FFEE
:1007E800FFFFDF41000000000000F03F2DE9F04767
:1007F80006468946B46858EC107BADF1680D002CAC
:1008080044BF0624B4600FF2842A9AE80C004146DB
:10081800384605F042FD4FF000050DD90FF2543A65
:100828009AE80C00384605F0F5FC05D9D3A20CCAA5
:1008380005F0F0FC13D120E09AE880010FE09AE877
:100848000C00384605F068F96D1C884607460FE02D
:100858009AE80C0005F084FA6D1E88460746C9A27E
:100868000CCA4146384605F0D5FC0FF2203AEFD3C2
:100878009AE80C0005F011FDE1D948EC107B01A8BD
:1008880021466A46FFF7D8FE04460098022808D198
:10089800401E0090204606F0FBF86D1C0021401E0B
:1008A8002154317B28464A46FFF777FD009FB568FB
:1008B800204606F0EDF8E9196A1EA1F1010111D4EC
:1008C800521C002903D48842C8BF655C00DC30256F
:1008D800D9F800305F1E521EC9F80070A1F101015D
:1008E8001D70EED1204606F0D3F800990122884207
:1008F80003D13068000938BF002220464B46FFF775
:1009080088FD1AB0BDE8F0872DE9F04FADF1840DF0
:100918005EA41E900020019094E80C0058EC107B17
:100928000E464146384605F0B8FC0FF250290CD95E
:1009380090A494E80C00384605F06CFC05D999E8B9
:100948000C0005F067FC02D109E094E8800148EC4E
:10095800107B01A806F030F80198401E01901E98FF
:100968008568007BB5F1FF3F4FF000041B9008BF7E
:1009780001241B9A874B88482093A2461F90412A3E
:1009880018BF181C1C9030208DF8080099E80C003E
:100998004146384605F03EFC38BF88F0004899E8E3
:1009A8000C00414605F036FC0DD048EC107B68463B
:1009B80006F002F8009848EC107BC0F1010005F041
:1009C800E6FD58EC107B4146384605F0A2FE83460A
:1009D8000DF1090105F0B0FD0446584605F0BEFFCB
:1009E8000B4602464146384604F0BBFF0FF21C3B5B
:1009F80004EB0D021D940746BAF1000F02F1090439
:100A08005ED16D1C15D09BE80C0005F0A9F90F46C6
:100A1800804605F07EFE1C99095C04F8011B05F070
:100A28009DFF0B4602463946404604F09AFF6D1E6C
:100A3800E9D11B98641E224641280CBF1F9D209DAA
:100A48001178284606F00EF8401B08283DDB27469B
:100A58004FF000097D1E1B9841280CBFDDF87C80F3
:100A6800DDF880802978404605F0FCFFA0EB0800FF
:100A7800401C1028B4BF18F8001030211028297025
:100A880023DB6D1E07F8019DE5E7C0460000000066
:100A98000000F07F9BE80C00384605F061F90D4630
:100AA800074605F036FE1C99095C04F8011B05F0A1
:100AB80055FF0B4602462946384604F052FF0746C2
:100AC80099E80C0005F0A6FBE4D11E980025007BF0
:100AD8002570412814BF7021502101983246FFF734
:100AE8005CFC1E988468B4F1FF3F06D10DF1090043
:100AF80005F0CEFF441E1E9884600DF1090005F034
:100B0800C7FF1D99002C2144A1F1010110DD002926
:100B180005D48842C4BF01EB0D02527A00DC3022B2
:100B280033685F1E641E3760A1F101011A70EED1AF
:100B38001E99086889682A4600F0080001430DF1EB
:100B4800090018BF01221D993346FFF762FC1E9861
:100B5800007B412814BF782158213068421E32603A
:100B6800017030683027411E316021B00770BDE840
:100B7800F08FC046000000000000F0FF00000000F9
:100B880000000000000000000000F03F000000002E
:100B98000000244008040000F40300002DE9F84395
:100BA8000D460646317B14460F460846613F1A2F0C
:100BB80038BF20380027884208BF01271868C01DA1
:100BC80020F0070008301860A0F1080191E8000340
:100BD800083803C841EC100B05F090FE022879D0C4
:100BE80049EC108B05F08AFEC0A201283AD00CCA45
:100BF8004946404605F00EFB03D2012089F0004922
:100C08002860307B413825D0001F1BD0401E11D0F2
:100C1800401E07D01A381DD0001F13D0401E09D01F
:100C2800401E71D149EC108B30462146FFF728FC55
:100C3800BDE8F88349EC108B30462146FFF782FD6A
:100C4800BDE8F88349EC108B30462146FFF7CEFD0E
:100C5800BDE8F88349EC108B30462146FFF754FE77
:100C6800BDE8F8830CCA4946404605F0D3FA16D3C6
:100C7800002F14BF462166212068421E2260002FE3
:100C8800017014BF4E216E212068421E2260002F81
:100C9800017014BF4920692003222B2115E0002F81
:100CA80014BF462166212068421E2260002F017071
:100CB80014BF4E216E212068421E2260002F017051
:100CC80014BF4920692004222D2123685E1E266056
:100CD800187014E0002F14BF4E216E212068421EA8
:100CE8002260002F017014BF412161212068421E3B
:100CF8002260002F017014BF4E216E21022220684D
:100D0800431E236001702A60BDE8F88300000000DC
:100D1800000030402DE9FF479046044600220D466A
:100D280004F2FD1792460192202102976E68CDF8D1
:100D380000A04FF4FF7205F0F7FA029880F800A0BF
:100D48002A7BD146A6194346C84604F5FE70642A94
:100D5800029010DC642A21D0B2F1250119D01C3987
:100D680022D0091F02291FD9133917D009391BD0DE
:100D7800891E1FD034E0A2F16500022814D9001F93
:100D88000CD0801F012809D9801F07D0C01E05D0AC
:100D980026E055A0018801202180A2E0284601A96B
:100DA80002AAFFF712FA1AE02846694602AAFFF7D4
:100DB800F5FE14E01968C91C21F00301091D19602A
:100DC80011F8043C494603B90121A0F1010C037054
:100DD8002A68CDF808C0884622F002022A602A7BD9
:100DE800752A28D06F2A26D0782A24D0582A22D0CB
:100DF800702A20D0009B1BB15B1E1CD101200190E2
:100E0800019B286800F002091BB9800806D32B2033
:100E180000E02D2002994A1E02920870019850B9EC
:100E2800B9F1000F07D12868C00804D30298411E01
:100E38000291202303702868400808D20298696844
:100E48003A1A914203DBC01B37187F1C00E0274683
:100E58000299384652464FF4FF73491C05F0E8FDE5
:100E6800B8F1000F029003D0411C029180F800A055
:100E78000298864207D3321A2021401E521C05F0E0
:100E880053FA86F800A02868400921D3BC4224D030
:100E98003A1B2046302105F047FA287B78280FD0E6
:100EA80058280DD070280BD0019859EA000002D1BB
:100EB8002868C00811D33878207030263E700CE0BE
:100EC8002868000909D37878607030267E7004E0BD
:100ED8003A1B2046202105F027FA204605F0D8FDC8
:100EE80040440090BDE8FF872500C0460000000090
:100EF800000000002DE9F04F0546ADF5FE7DADF18F
:100F0800300D0091949889902C6828689846164668
:100F180005F0BEFD014620468A96611800248142EC
:100F2800889140F26581A346CDF804B08DF810B0E1
:100F3800CDF808B04FF0FF3103910778252F08BF8F
:100F48005B460ED0002F00F053812968491C2960A8
:100F580000788A99C04728680778641C252FF1D142
:100F6800019B29680098491C296011E043F010038F
:100F78000AE043F0010307E043F0020304E043F012
:100F8800080301E043F0040301932968491C296020
:100F980029680A78B2F12001F4D0C91EEFD00839C7
:100FA800EAD0891EE5D0C91EE0D02A2A1ED085A81D
:100FB80059460A2205F0B8F92868017830290BDB70
:100FC80085AA3A2908DA0146401C2860097802F8FF
:100FD800011B01783029F4DA9DF8140218B185A8AC
:100FE80005F026FB02900098296810E0C01C20F04C
:100FF8000300001D50F8041C0090002903D543F09D
:1010080001030193494202912968491C29600A7821
:101018002E2A33D12968491C296009782A2921D028
:1010280085A859460A2205F07FF9286801783029F1
:101038000BDB85AA3A2908DA0146401C28600978A2
:1010480002F8011B01783029F4DA9DF8140200280F
:1010580008BF584602D085A805F0EAFA0246296872
:10106800009809E02968C01C20F00300001D491CF5
:10107800009050F8042C296003920A78019F4C3A9A
:101088001FD01C3A11D0121F21D12968491C296090
:101098000A786C2A03D047F04007019717E02968BF
:1010A80047F48077491C2960F7E72968491C2960BB
:1010B8000A78682A18BF47F02007EED147F400776E
:1010C80001E047F0800701972968491C29602A68D0
:1010D800521C2A6009786E298DF8101054D09DF89A
:1010E8001010732944D1039EC01C20F00300001D7A
:1010F800009050F804ACBAF1000F35D0DDF8089034
:10110800002E06D4504605F0C3FCB04288BF301C00
:1011180002D8504605F0BCFC06464E45A8BF81469D
:101128004C44B14509DD780807D2B9EB060704DD60
:101138008A992020C0477F1EFAD1002E06DD374647
:101148001AF8010B8A99C0477F1EF9D10198B14559
:1011580049DD400847D3B9EB060744DD8A992020CA
:10116800C0477F1EFAD13EE08A995846C0473AE008
:1011780005A801A96A46FFF7CDFD899B8A99024611
:1011880005A8984724182EE007F4EC67203F22D0E2
:10119800E03F14D0B7F5807708D0C01C20F00300DA
:1011A800001D009050F8040C04601CE0C01C20F0E6
:1011B8000300001D009050F8040C047013E0C01CDC
:1011C80020F00300001D009050F8040C2146E2179F
:1011D80080E8060007E0C01C20F00300001D009016
:1011E80050F8040C04802868889981423FF69CAE28
:1011F8007FB020460CB0BDE8F08F012205F004B99D
:10120800C8B584469CF800700020002F36D0C04630
:10121800302F33DB3A2F31DA1CF8016F410001EB34
:10122800C001002E07EB0100A0F1300026D0302EBF
:1012380024DB3A2E22DA1CF8017F410001EBC001C1
:1012480070183038D7B1302F18DB3A2F16DA1CF85F
:10125800016F410001EBC0017818303876B1302EAB
:101268000CDB3A2E0ADA1CF8017F410001EBC001C1
:10127800002F06EB0100A0F13000C9D1C8BDC0465F
:10128800021C10B511D05342491E4FEA0808C04647
:1012980011F8010F002808BF012007D01478A042D8
:1012A80003D15B1E02F10102F2D1002010BDC0463D
:1012B8002DE9F04381460C464FF0FF300121ADF196
:1012C8000C0D04F0CDFD54B14D4627464FEA0808F1
:1012D80015F8010B012104F0E3FD7F1EF8D1012070
:1012E80004F016FE4FF0007840F274430146CD43F7
:1012F800C2F20003290E2E0C8DF8055018888DF8BF
:101308000210D8F860288DF801002D0A8DF80360C6
:1013180001128DF8001052688DF80450401C7E218F
:10132800188041F20000C4F20000904708F50668F2
:101338000626ADF10105C04615F8011F7E2918BF24
:101348007D2909D1D8F8000042687D2141F20000CA
:10135800C4F2000090472978D8F80000426841F2AA
:101368000000C4F200009047761EE5D1FCB1A9F157
:10137800010927464FEA080819F8011F7E2918BFF6
:101388007D290AD1D8F8000042687D2141F2000089
:10139800C4F20000904799F80010D8F8000042689D
:1013A80041F20000C4F2000090477F1EE4D1D8F853
:1013B800000042687E2141F20000C4F2000090471C
:1013C80041F20A01C4F200010888400803D3C0466C
:1013D80008884008FCD203B0BDE8F0834FEA08084B
:1013E80038B50446207878B140F66005C0F200258B
:1013F80029684A68014641F20000C4F2000090479B
:1014080014F8010F0028F3D138BD4FEA0808C04688
:101418000278CBB2934218BF002105D1014603E000
:1014280010F8012F9342F9D0002AF9D108467047E5
:10143800D0B5061C0F46ADF1100D64D000F088FF42
:10144800BB22002303F0C3FF0246BFA1684605F094
:1014580043F86846FFF7C4FF57B32F213846FFF714
:10146800D7FF002818BF471C40F24C7107237F1E86
:10147800C2F200010A46C04617F8010F98B12E289B
:1014880011D002F8010B17F8010F60B12E280AD00D
:101498005B1E02F8010BEFD117F8010F00281CBFE3
:1014A8002E2802F8010B002010700846FFF798FF5D
:1014B8004FF00074D4F860084268202141F200001F
:1014C800C4F2000090473046FFF78AFFD4F860085E
:1014D80042680D2141F20000C4F200009047D4F8A0
:1014E800600842680A2141F20000C4F200009047F7
:1014F80041F20A01C4F200010888400803D3C0463B
:1015080008884008FCD204B0D0BD4FEA0808C0469D
:101518002DE990418046081C46D040F660040F46ED
:10152800C0F200244FEA080898F800009F280BD85A
:1015380021684A684FEA201E41F20000C4F2000008
:101548000EF1300190470AE021684A684FEA201EF0
:1015580041F20000C4F200000EF15701904718F85C
:10156800011B01F00E000A280ADA2068426801F01F
:101578000F01303141F20000C4F20000904709E049
:101588002068426801F00F01573141F20000C4F2AF
:101598000000904720684268202141F20000C4F210
:1015A800000090477F1EBFD1BDE890814FEA080830
:1015B80038B505469F2D0FD84FF00074D4F8600851
:1015C80042682911303141F20000C4F2000090470E
:1015D80004F506640EE0C0464FF00074D4F86008C5
:1015E80042682911573141F20000C4F200009047C7
:1015F80004F5066405F00E000A280DDA2068426832
:1016080005F00F01303141F20000C4F200009047AC
:1016180038BD4FEA0808C0462068426805F00F0147
:10162800573141F20000C4F20000904738BDC0466F
:1016380038B50546642D12DB40F66000C0F2002084
:101648000068426848F21F5EC5F2EB1E8EFB05106B
:10165800410941F200003031C4F20000904740F6E1
:1016680060040A2DC0F2002413DB206842684CF69F
:10167800CD4E0EFB05F10A23C90C0EFB01F0C00884
:1016880010FB23F0091A41F200003031C4F20000C7
:101698009047206842684CF6CD4E0A210EFB05F0B3
:1016A800C00810FB21F0291A41F200003031C4F2C1
:1016B8000000904738BDC046C8B502681778202F8B
:1016C80016D14FEA0808C04650F8042F1778202F83
:1016D8000ED150F8042F1778202F09D150F8042F75
:1016E8001778202F04D150F8042F1778202FEBD02B
:1016F800002F08BF002026D037F0200620D0C04693
:1017080001F8017B50F8042F127832F0200717D027
:1017180001F8012B50F8042F127832F020070FD06F
:1017280001F8012B50F8042F127832F0200707D067
:1017380001F8012B50F8042F177837F02002DFD179
:10174800002201200A70C8BD25396C752000C046EA
:1017580038B5BBA1044605F0B7F848BB207838B3C4
:101768002046B8A105F03CF8041C24D044F60345F3
:10177800C4F200054FEA08080FA105F0A5F858B90A
:1017880020460EA105F0A0F850B1287800F0EF002F
:10179800287005E04FEA0808287840F01000287003
:1017A800002007A105F01CF8041CE5D138BDC0468F
:1017B80004A0FFF715FE38BD6F6E00C06F666600A7
:1017C800202C00C075736167653A20206C65642021
:1017D8005B49445D205B6F6E2F6F66665D205B6CB6
:1017E8003D302E2E3235355D205B723D302E2E3247
:1017F80035355D205B673D302E2E3235355D205BFB
:10180800623D302E2E3235355D0D0A004FEA08084C
:101818002DE9B04704462078ADF1840D202810D179
:1018280078B114F8010F20280BD114F8010F2028E3
:1018380007D114F8010F202803D114F8010F20282C
:10184800EED020467EA105F03FF8002840F07C81CC
:101858002078002800F0788120467AA104F0C0FFA3
:10186800071C00F0748144F6004940F6600441F218
:101878000C054FF00008C4F20009C0F20024C4F2BD
:101888000005CA464FEA0808B2A105F01DF800286D
:1018980040F032813846B1A105F016F8002840F032
:1018A800D3803846AFA105F00FF8002800F0C480B7
:1018B8004046AEA104F094FF20B1ADA105F004F8B4
:1018C80000284DD19AF80000800845D3404602F020
:1018D800BBFC00283CD001A8414602F079FB074632
:1018E80002F00AFCA7B307EB0D0080F80480384625
:1018F800FFF79EFE9FA0FFF773FD01A8FFF770FD9D
:10190800206842680D2141F20000C4F200009047AF
:10191800206842680A2141F20000C4F200009047A2
:1019280001A83946FFF7F4FD206842680D2141F20D
:101938000000C4F200009047206842680A2141F282
:101948000000C4F20000904701E14FEA0808C046D1
:101958008DA0FFF745FDFAE090A0FFF741FDE9E013
:1019680096A0FFF73DFD41E09AF8000080083DD3BE
:10197800404602F069FC002838D001A8414602F030
:1019880027FB074602F0B8FB87B307EB0D0080F88A
:1019980004803846FFF74CFE76A0FFF721FD01A82A
:1019A800FFF71EFD206842680D2141F20000C4F2D5
:1019B80000009047206842680A2141F20000C4F202
:1019C8000000904701A83946FFF7A2FD2068426849
:1019D8000D2141F20000C4F20000904720684268DF
:1019E8000A2141F20000C4F20000904741F20000D1
:1019F8000121C4F2000003F087FA0028B4D020685F
:101A0800C26B012141F20000C4F20000904728880F
:101A18000328A9D1206842680D2141F20000C4F2D0
:101A280000009047206842680A2141F20000C4F291
:101A3800000090477EE0C04670A0FFF7D1FC79E037
:101A48003F00C0462000C046404648A104F0C8FEFA
:101A5800071C7CD03878202813D14FEA0808C046E4
:101A680090B117F8010F20280BD117F8010F202883
:101A780007D117F8010F202803D117F8010F2028E4
:101A8800EED0222808BF7F1C38462221FFF7C0FC71
:101A9800002818BF80F800804FF0FF34791EC04638
:101AA80011F8010F641C60B111F8010F641C40B1FA
:101AB80011F8010F641C20B111F8010F641C0028F3
:101AC800EED1E0B2A0B1E3B201A851A13A4604F0C8
:101AD80003FD01A8FFF784FC012002F0B5FB0028F4
:101AE80035D0E1B2384602F073FA02F005FB2EE079
:101AF80050A0FFF775FC2AE0012002F0A5FB414643
:101B0800002818BF0121081C08BF404602D002F077
:101B1800F3FA0120009099F8001099F88100C1F3B8
:101B28004002C0F340034CA101A804F0D5FC01A871
:101B3800FFF756FC40465F4904F052FE071C7FF44D
:101B4800A3AE04E04FEA08084FA0FFF749FC21B014
:101B5800BDE8B08773746174757300C07772697477
:101B68006500C0467265616400C046C000C046C0DA
:101B78002D6300C02062797465732072656365699E
:101B88007665643A0D0A00C0302062797465732066
:101B980072656365697665640D0A00C06E6F2064BE
:101BA80061746120746F20726561642028717565A5
:101BB800756520656D707479290D0A0077616974FF
:101BC800696E6720666F72206D65737361676573F0
:101BD8002066726F6D20424F4C542E2E2E20287096
:101BE80072657373206374726C202B206320746F8A
:101BF8002061626F7274290D0A00C046756E6B6EA3
:101C08006F776E20706172616D657465720D0A0080
:101C180077726974696E67206D6573736167652093
:101C28002725732720282564206279746573290D78
:101C38000A00C046696E76616C69642061726775D6
:101C48006D656E742028656D70747920737472697F
:101C58006E67290D0A00C046494E442070696E3AE5
:101C68002025750D0A494E44204F55542070696E41
:101C78003A2025750D0A424F4C54207374617465DF
:101C88003A2025750D0A00C075736167653A2020F2
:101C9800626F6C74205B77726974652F726561641A
:101CA8002F7374617475735D205B646174615D0D7D
:101CB8000A00C046C81700002DE9F84F8246BAF15D
:101CC8000D0F00F0AD81BAF1090F00F00D81BAF1E6
:101CD800080F00F0D980BAF1200FC0F22682BAF1BD
:101CE8007E0F00F3228240F27240C2F200000178B7
:101CF8001B2900F0C18040F27348C2F2000898F82E
:101D0800000008B15B2937D040F26C45C2F20005EB
:101D1800296840290CD040F21842481C40F660045B
:101D2800C2F200022860C0F2002402F801A013E009
:101D380040F66004C0F2002420684268082141F29D
:101D48000000C4F200009047296840F21840C2F22F
:101D58000000401800F801AC206842684FF0000EFF
:101D6800514688F800E041F20000C4F200009047B4
:101D7800DBE14FEA0808C046BAF1410F77D140F2DB
:101D88006C49C2F20009D9F8000018B340F66004A3
:101D9800C0F200244FEA080820684268082141F28E
:101DA8000000C4F20000904720684268202141F2F8
:101DB8000000C4F20000904720684268082141F200
:101DC8000000C4F200009047D9F80000401EC9F88E
:101DD8000000E1D140F27045C2F20005287840F2D7
:101DE800E80BC2F2000B0BEB8014207880B140F6B0
:101DF8006006C0F20026C04631684A68014641F2D2
:101E08000000C4F20000904714F8010F0028F3D135
:101E180028784FEA801C1BF80C7040F2184EC2F26A
:101E2800000EDC440EF101008EF800700CF1010C7C
:101E380047B14FEA0808C0461CF8017B002F00F89C
:101E4800017BF9D12F784FF0FF30AEF1010EC0467B
:101E58001EF8016F401C002EFAD1C9F80000002FAF
:101E680004BF0720287002D02878401E2870002060
:101E780088F8000059E1C04640F273410120C2F2DF
:101E88000001087051E1C04640F26C44C2F20004FF
:101E98002068002800F0498140F66005C0F200255E
:101EA80028684268082141F20000C4F20000904707
:101EB80028684268202141F20000C4F200009047DF
:101EC80028684268082141F20000C4F200009047E7
:101ED800206840F218420021401E2060C2F2000231
:101EE800115422E14FEA080840F27248C2F2000891
:101EF80098F80000092847D040F26C49C2F200095E
:101F0800D9F80070002F00F0108140F2584440F2D8
:101F1800184505264FF00008C2F20004C2F2000579
:101F2800A4F1040B4FEA08085BF804CF2946604681
:101F3800FFF7A6F920B9761E08F10108F4D1F4E0FC
:101F480007EB0C00FFF74CFADBF800004FF0FF320C
:101F5800411E4FEA0808C04611F8010F521C00281C
:101F6800FAD14FEA8806A159284604F0BBF8A159CE
:101F78004FF0FF32491EC04611F8010F521C0028CD
:101F8800FAD1C9F80020D0E040F66004C0F200247D
:101F9800206842680D2141F20000C4F20000904719
:101FA800206842680A2141F20000C4F2000090470C
:101FB80040F258450527C2F200054FEA0808C04616
:101FC80055F8040BFFF70CFA20684268092141F222
:101FD8000000C4F2000090477F1EF1D120684268DB
:101FE8000D2141F20000C4F20000904720684268C9
:101FF8000A2141F20000C4F20000904746F67C50E6
:10200800C0F20000FFF7ECF940F21840C2F20000FD
:10201800FFF7E6F9002088F80000BDE8F88FC04611
:1020280040F66004C0F20024206842680D2141F2A5
:102038000000C4F200009047206842680A2141F27B
:102048000000C4F20000904740F26C45C2F200055F
:102058002868002863D040F27146C2F20006327840
:1020680040F2184440F2E803401CC2F20004C2F2F5
:102078000003214603EB82130246184604F032F8A7
:10208800317840F27042C2F20002481C117000F030
:1020980007002AA130702046FFF7F2F8002827D160
:1020A800204628A1FFF7ECF8002831D1204627A1C7
:1020B800FFF7E6F8C0B9204626A1FFF7E1F878B99E
:1020C800204625A1FFF7DCF830B925A0FFF788F9ED
:1020D8001EE04FEA0808C04626A0FFF781F917E07E
:1020E800E01CFFF735FB13E0201DFFF791FB0FE025
:1020F80032A0FFF775F941F2FF10C0F27A00401ED6
:10210800FDD100BF44F60C010020C4F20001088094
:1021180020460021402204F007F90020286046F6F6
:102128007C50C0F20000FFF75BF940F27240C2F247
:10213800000080F800A0BDE8F88FC046726573659E
:102148007400C0467465737400C046C0626F6C74D6
:1021580000C046C06C65640068656C7000C046C00D
:10216800756E6B6E6F776E20636F6D6D616E640D4B
:102178000A00C046736F7272792C2063616E2774EF
:102188002068656C7020796F752E2E2E203B2D29C6
:102198000D0A28707265737320646F75626C652010
:1021A80074616220746F206C697374207468652090
:1021B800636F6D6D616E6473290D0A007265626FDD
:1021C8006F74696E672E2E2E000001207047000084
:1021D800F0B546F6C8214FF49072ADF5A27DC0F275
:1021E8000001684603F07EFF45F25550C4F2D01056
:1021F80000EE100AF3EE000AB4EEE00AF1EE10FA6F
:1022080003DC00221A23154602E001230A221D4698
:1022180040F2A11124AE0024232708464FEA0808FB
:1022280056F804CD61450ED856F804CD61450AD854
:1022380056F804CD604506D856F804CD604502D856
:102248003F1FEDD501E0D6F8904046F6E451C0F2C4
:102258000001B1E8C01048A8A0E8C010B1E8C0105B
:10226800A0E8C010C2C944F6044EC4F2000E80E8CB
:10227800C2009EF8000000F0FB008EF800009EF8F7
:10228800000000F0F7008EF800009EF806004FF0FE
:10229800007740F004008EF806009EF80800499385
:1022A80000F0FB008EF808009EF806004A9240F005
:1022B80008008EF806009EF808004B9400F0F7001E
:1022C8008EF80800D7F860085095026848A941F2CE
:1022D8000000C4F200009047D7F86008816841F216
:1022E8000000C4F200008847D7F86008C26B0121DB
:1022F80041F20000C4F200009047D7F86008026B72
:10230800012141F20000C4F20000904751B0F0BD35
:1023180010B54FF00074D4F85C08416A4CF2000024
:10232800C4F20000884704F65C0168B140F29042AC
:10233800C2F2000209681068401C1060096A4CF279
:102348000000C4F20000884710BD4FEA0808C046E4
:102358002DE9904704F0BCF904F0BAF940F62C0ACC
:10236800C0F2002A0746DAF800004068804787F084
:10237800010707F00107C046FFF7CAFFDAF8300087
:10238800C1684CF20000C4F2000088470446DAF83D
:102398003000416A4CF20000C4F2000088476FEA3E
:1023A80004090028E8D140F29040C2F20000006819
:1023B8004FF0000849EA0809000048EA00081FB180
:1023C800DAF800000068804741464846BDE8908733
:1023D80038B54FF00075D5F85C080468082101226B
:1023E80000234CF20000C4F20000A047D5F85C08B6
:1023F800016A4CF20000C4F200008847D5F85C0876
:1024080081694CF20000C4F200008847D5F85C08E6
:10241800026900214CF20000C4F20000904738BD68
:1024280010B54FF00074D4F85408016945F2003033
:10243800C0F207008847D4F8540800688047D4F8E9
:1024480054088068804710BD44F60442C4F2000274
:10245800917941F080019171117A01F07F01117237
:10246800917941F040019171117A01F0BF01117227
:10247800917941F020019171117A01F0DF01117217
:10248800117801F07F011170117841F0400111704D
:10249800117842F20003C4F2000341F020011170E8
:1024A800012119801A884AF6801111434CF2C06242
:1024B800C0F22D021980B2FBF0F0D880598D4FF68A
:1024C800FC7008405885704744F68442C4F2000204
:1024D800917941F040019171117A01F0BF011172B7
:1024E800917941F080019171117A01F07F011172A7
:1024F800917941F020019171117A01F0DF01117297
:10250800117801F0BF011170117841F0800111704C
:10251800117841F60043C4F2000341F02001117024
:10252800012119801A884AF6801111434CF2C062C1
:10253800C0F22D021980B2FBF0F0D880598B4FF60B
:10254800FC700840588370472DE9F84F0AAF3D7A70
:102558003C793F780E469A46914680460C2E05DC1B
:10256800182F03DA3C2CB8BF3C2D05DB0020BDE852
:10257800F88F4FEA0808C0464FF0007BDBF84808A0
:102588004068804740F22070C2F200000560446055
:102598008760C0F80CA0C0F8109046610021C0F810
:1025A800188001F05DFBDBF84808006880470120CF
:1025B800BDE8F88F4FEA080870B50D464FF0007671
:1025C8000146D6F84808C4692846A047D6F84808FE
:1025D800846C01F0E1FBA047D6F84808816B202005
:1025E800884770BD4FEA080810B5044640F6480011
:1025F800C0F2002000688169ADF1300D04A8884759
:10260800B4B1089800900698019005980290049833
:1026180003900A9A099B40F200740DA1C2F20004CB
:10262800204603F059FF20460FE04FEA0808C0464D
:1026380004980090069A059B40F200740BA1C2F220
:102648000004204603F048FF20460CB010BDC046E9
:1026580025752D253032752D2530327520253032DF
:10266800753A253032753A25303275002530327585
:102678003A253032753A25303275004FEA0808C0DD
:1026880010B542F20404CEF20404D4F80401002880
:1026980040F03A81D4F8FC00002840F0E580D4F8F6
:1026A8001401002840F0CC80D4F80C01400880F0D8
:1026B800B780206800283FD1E068002800F05681E4
:1026C800E068401E2CD0401E1AD0801E08D040F270
:1026D8003C70C8A10B22C2F2000003F003FD27E002
:1026E800C7A0026840F23C71C2F200010A60D0F84B
:1026F80004E0C1F804E090F808C081F808C017E0C9
:10270800C2A0026840F23C71C2F200010A60B0F84F
:1027180004E0A1F804E090F806C081F806C007E0DC
:1027280040F23C70BBA10F22C2F2000003F0DAFCB9
:102738004FF6FF70206119E12068401E64D0401EEA
:1027480052D0801E40D0001F2ED043F6F871401A98
:102758001ED0B0F580400BD040F23C70B1A10B22E6
:10276800C2F2000003F0BEFC56E04FEA0808C0467B
:10277800AFA0026840F23C71C2F200010A60B0F8F2
:1027880004E0A1F804E090F806C081F806C043E030
:10279800A9A0026840F23C71C2F200010A60808878
:1027A800888039E04FEA0808D6A0026840F23C71F8
:1027B800C2F200010A60D0F804E0C1F804E090F821
:1027C80008C081F808C027E0D1A0026840F23C7137
:1027D800C2F200010A60D0F804E0C1F804E090F801
:1027E80008C081F808C017E0D5A0026840F23C7123
:1027F800C2F200010A60B0F804E0A1F804E090F821
:1028080006C081F806C007E040F23C70CEA10C2259
:10281800C2F2000003F066FC4FF6FF706060A5E0AE
:10282800CCA0026840F23C71C2F200010A60406824
:1028380048604FF0010EC4F810E197E04FEA08082D
:10284800D8A0026840F23C71C2F200010A60D0F8D8
:1028580004E0C1F804E0B0F808C0A1F808C00123FA
:10286800C4F8183182E0C046D4F8FC00401E3BD0C2
:10287800401E2DD0801E1BD0001F09D040F23C7096
:10288800CBA10B22C2F2000003F02CFC35E0C046BD
:10289800CAA0026840F23C71C2F200010A60D0F896
:1028A80004E0C1F804E0B0F808C0A1F808C024E0CA
:1028B800C5A0026840F23C71C2F200010A60D0F87B
:1028C80004E0C1F804E090F808C081F808C014E0FA
:1028D800C0A0026840F23C71C2F200010A60406880
:1028E80048600AE04FEA0808BCA0026840F23C7160
:1028F800C2F200010A60406848600120C4F8000183
:1029080034E04FEA0808C046D4F80401401E1BD042
:10291800401E09D040F23C70A5A10B22C2F2000073
:1029280003F0E0FB1FE0C046AEA0026840F23C7135
:10293800C2F200010A60D0F804E0C1F804E090F89F
:1029480008C081F808C00EE0A9A0026840F23C71F6
:10295800C2F200010A60D0F804E0C1F804E090F87F
:1029680008C081F808C00120C4F8080140F23C7092
:10297800C2F2000010BDC046042110B5C4F2010126
:1029880008684FF0007420F003000860D4F8340899
:10299800016801208847D4F83C08816900208847ED
:1029A800002002F019FB10BD10B54FF00074D4F8E8
:1029B8002C08816933208847D4F82C088169342091
:1029C8008847D4F82C08816920208847D4F82C0837
:1029D800816928208847D4F82C08816929208847EC
:1029E800D4F82C0881692D208847D4F82C08006871
:1029F800804710BD43335F554E4B4E4F574E00C076
:102A080043335F574454505700C046C043335F5761
:102A1800445400C043335F4D344350554C4F434BEF
:102A2800555000C043325F554E4B4E4F574E00C075
:102A380043325F50434D00C043325F435300C046AA
:102A480044F60242FF21C4F2000291700020107087
:102A5800107290729076D17050705072D072D07699
:102A680082F8221082F8200082F8280082F82A00D2
:102A780082F83A0082F8231082F8210082F82900AF
:102A880082F82B0082F83B0082F8421082F840005E
:102A980082F8480082F84A0082F85A0082F8431007
:102AA80082F8410082F8490082F84B0082F85B0006
:102AB80082F8621082F8600082F8680082F86A0082
:102AC80082F8631082F8610082F8690082F86B006E
:102AD80082F8821082F8800082F8880082F88A00E2
:102AE80082F8831082F8810082F8890082F88B00CE
:102AF800A2F82211A2F820013021A2F82811A2F888
:102B08002A01704743325F464C41534800C046C0D3
:102B180043325F5744545057004FEA0808C046C034
:102B280010B54FF00074D4F81C08426D0221002043
:102B38009047D4F81C08426D02210120904710BD2F
:102B480043325F57445400C043325F4D34525354AC
:102B58005245510043305F4E525354004FEA080823
:102B68004FF6FC70C0F203000168B1F1FF3F17D1C6
:102B7800001F15D00168B1F1FF3F11D1001F0FD020
:102B88000168B1F1FF3F0BD1001F09D00168B1F115
:102B9800FF3F05D1001F03D00168B1F1FF3FE7D027
:102BA800001D704743305F53595343544C00C0468F
:102BB80043305F554E4B4E4F574E00C043305F5623
:102BC800434344455400C04643305F42475245465C
:102BD80000C046C043305F535653480043305F53EC
:102BE80056534C0043305F4C504D343500C046C0FE
:102BF80043305F4C504D3335004FEA0808C046C09B
:102C08002DE9F04180464FF00076D6F818080068A4
:102C18000F46ADF1080D8047D6F81808C16940F293
:102C28000060C2F200008847D6F81808C16C062078
:102C3800C0F200108847D6F81808C16C0720C0F207
:102C480000108847D6F81808026B0F210620C0F23A
:102C580000109047D6F81808026B0F210720C0F221
:102C680000109047D6F81808826B4FF040410620B4
:102C7800C0F200109047D6F81808826B4FF04061F8
:102C88000720C0F200109047D6F84C08816A41F638
:102C98000040C4F2000088470346D6F81808C56B00
:102CA8004FF480640121424606200094C0F20010CF
:102CB800A847D6F84C08416A41F60040C4F2000023
:102CC80088473B460246D6F81808C56B0121009490
:102CD8000720C0F20010A847D6F81808426D07214F
:102CE80031209047D6F82C08816931208847D6F8DA
:102CF8001808016906208847D6F8180801690720CE
:102D0800884702B0BDE8F0812DE9F04180464FF0D8
:102D18000076D6F81808006814460F46ADF1080D7D
:102D28008047D6F81808C16940F20060C2F2000076
:102D38008847D6F81808C16C0720C0F20070884789
:102D4800D6F81808026B0F210720C0F200709047D0
:102D5800D6F81808826B4FF0BA410720C0F200700D
:102D68009047D6F81808826B4FF0BA410F20C0F28E
:102D780000709047D6F81808C56B42F21C02032170
:102D88004346C4F2010207200094C0F20070A8472D
:102D9800D6F81808C56B42F21C0203213B46C4F260
:102DA80001020F200094C0F20070A847D6F8180856
:102DB800426D072132209047D6F82C0881693220CD
:102DC8008847D6F8180801690720884702B0BDE887
:102DD800F0814FEA0808C04608B5FFF7CDFDFFF7B8
:102DE8009FFE0B200321012201F0D6FD0B200C21B0
:102DF800012201F0D1FD012000F03AFA46F6004127
:102E08004FF40040C0F2DC2100F042FA40F6001016
:102E1800C0F23D0000F05CFA002000F055F90020F7
:102E280000F002FA02200521002200F035FB042000
:102E380005214FF0005200F02FFB082005214FF02C
:102E4800804200F029FB002101200A4600F024FB03
:102E58004FF080500221002200F01EFB08BDC04642
:102E680038B503F0B1F803F0BBF84FF00075D5F8AA
:102E7800040800688047D5F80408846800214FF4E6
:102E880000030A464FF4C010A047D5F80408026AA8
:102E9800002101209047D5F80408046B0021162270
:102EA8000B460120A047D5F8040882694FF4E0409A
:102EB80001469047D5F80408416F80208847D5F827
:102EC8000408C26D0124002120469047D5F8400827
:102ED800016830208847D5F8400840698047D5F810
:102EE800400880688047D5F80408406A8047D5F8CC
:102EF8000408C26D00212046904738BD4FEA0808F3
:102F080038B54FF00075D5F8200800688047D5F827
:102F18002008C068804705201021032201F07CFDAD
:102F2800D5F8040800688047D5F8040884684FF08D
:102F380080414FF0E07200234FF4C010A047D5F84D
:102F48000408026A012102209047D5F80408046B9E
:102F5800002101220B460220A047D5F80408826907
:102F6800002001469047D5F80408416F8020884723
:102F7800D5F80408406A8047D5F80408006F8047F0
:102F880038BD00000000000008B5112001F064FC05
:102F9800112001F075FA08BD40F2004246F65A11B8
:102FA8000028C4F20102116006D4516860F30C01D4
:102FB800516007E04FEA0808516860F30B0141F4DB
:102FC8008051516048F200010120C4F220210870AC
:102FD80070474FEA0808C0462DE9C047814640F2CD
:102FE800004A46F65A100F46C4F2010ACAF8000011
:102FF80002F01EFC8046012002F09EFC08F0010849
:103008004FF0000CB9F5007F08BF4FF0010C00200D
:10301800002F18BF0120B9F5007F11D0DAF80C1085
:1030280048F20002002341F00301C4F22022CAF84A
:103038000C10012182F8A43109E04FEA0808C046C3
:1030480048F200020121C4F2202282F8A41182F879
:10305800A01192F80069002E23D04FEA0808C04654
:1030680008B17F1E1DD082F8001A92F80069C6B117
:1030780008B17F1E15D082F8001A92F8006986B14F
:1030880008B17F1E0DD082F8001A92F8006946B187
:1030980008B17F1E05D082F8001A92F80039002B7B
:1030A800DED1BCF1010F07D0DAF80C0020F00300E4
:1030B80049EA0009CAF80C901170404602F0ECFB8E
:1030C800BDE8C0874FEA08080021FFF785BFC04662
:1030D80040F25C70C2F20000006844F23F21C0F286
:1030E8000F01814232D240F60111C0F23D01814206
:1030F8002CD841F20121C0F27A01814288BF4FF4F5
:10310800801024D842F20141C0F2F401814288BF04
:103118004FF400101BD843F20161C0F26E118142D6
:1031280088BF4FF4401012D844F60101C0F2E811EC
:10313800814288BF4FF4800009D846F60141C0F2A9
:10314800DC21814288BF4FF4A00000D800207047DE
:103158002DE9E847814640F2004A46F65A100F46E4
:10316800C4F2010ACAF8000002F062FB804601209E
:1031780002F0E2FBFFF7ACFF002608F00108002F81
:1031880018BF012648F2000C4FF0010EC4F2202CA3
:103198008CF8C0E1DAF80C10B9F1010F21F4E00164
:1031A80040EA0101CAF80C101ABF00218CF8E4119A
:1031B8008CF8E4E18CF8E0E19CF80459002D20D06B
:1031C8000EB17F1E1DD08CF804EA9CF80459C5B1D5
:1031D8000EB17F1E15D08CF804EA9CF8045985B10D
:1031E8000EB17F1E0DD08CF804EA9CF8045945B145
:1031F8000EB17F1E05D08CF804EA9CF8041900294A
:10320800DED1B9F1010F06D0002806BF00208CF8E6
:10321800C0018CF8C0E18CF800E0404602F03CFBAD
:10322800BDE8E8874FEA08080021FFF791BFC046CC
:1032380040F2004246F65A130128C4F20102136014
:1032480006D0106920F003000143116106E0C04672
:10325800106920F0300040EA0110106148F20001C6
:103268000120C4F22021087070474FEA0808C046C0
:1032780040F2004246F65A11C4F20102116048F2C7
:103288000001C4F2202181F83C0601200870704733
:1032980040F25C7340F26072C2F200031960C2F23D
:1032A800000210607047C04640F2004246F65A11CC
:1032B800C4F201021160516821F4E02108430121A0
:1032C800506048F20000C4F2202001707047C046E8
:1032D800034648F2804080B5C0F21E00984257D895
:1032E80040F60010C0F23D00984245D841F2002057
:1032F800C0F27A00984233D842F20040C0F2F4009B
:10330800984221D844F60000C0F2E81098420FD83D
:103318004AF20100C2F22560984240F285804FF4DB
:10332800A020FFF7C1FF46F60040C0F2DC2036E0DF
:103338004FF48020FFF7B8FF43F20060C0F26E1030
:103348002DE04FEA0808C0464FF44030FFF7ACFFC5
:1033580041F60030C0F2B70021E04FEA0808C04645
:103368004FF40030FFF7A0FF48F68050C0F25B0032
:1033780015E04FEA0808C0464FF48030FFF794FF85
:103388004CF2C060C0F22D0009E04FEA0808C046C0
:103398000020FFF789FF4EF26030C0F21600984215
:1033A8003FD048F2D801C4F220210F7847B941F242
:1033B8000002C0F22002D16C92ED190A07E0C04663
:1033C80041F20001C0F2200191ED210AC96E00EE20
:1033D800901A0021C4F2404101EE101AF8EEE00AFA
:1033E80031EE601AF7EE000A40EE010A01EE903A5B
:1033F800181A01EE100AF8EEE11AB8EEC11A20EE1A
:10340800210A60EE810AB2EE001A61EE200A80EE0F
:10341800800ABDEEC00A10EE100A00B2FFF7BCFD2C
:1034280080BD0020FFF7B8FD80BD4FEA0808C04600
:1034380040F26041C4F20101086070474FEA080891
:1034480040F2004246F65A110128C4F20102116006
:103458000AD048F200010120C4F2202181F80802B4
:1034680009E04FEA0808C04648F200010120C4F20A
:10347800202181F81802087070474FEA0808C046F2
:10348800014608B5112001F067F8112001F080F914
:1034980008BD4FEA0808C046C8B50F4640F2004CC0
:1034A800401E46F65A11C4F2010CCCF8001000F088
:1034B8008B80401E6CD0801E4ED0001F2CD04FF643
:1034C800F871C0F6FF71401A40F0998048F2301147
:1034D800C4F2202191F8C06536B94FEA0808C04601
:1034E80091F8C065002EFBD03FB1022F07D1012013
:1034F800087091F8C00538B181E00020087091F893
:10350800C00500287BD1C04691F8C0050028FBD033
:1035180075E04FEA0808C04648F2EC61C4F2202181
:103528000E7826B94FEA08080E78002EFCD0DCF891
:1035380008304FF68F70C8F6FF70184040EA071041
:103548000243CCF808200878002858D14FEA080828
:1035580008780028FCD052E048F2E863C4F220233F
:103568001E7826B94FEA08081E78002EFCD0DCF831
:103578000800110A41EA071120F070100843CCF83E
:103588000800187800283AD118780028FCD036E0CE
:1035980048F2E461C4F220210E7826B94FEA0808FF
:1035A8000E78002EFCD0DCF8080020F0071040EA66
:1035B80012300743CCF80870087800BB4FEA0808B7
:1035C80008780028FCD01AE048F2E063C4F220230F
:1035D8001E7826B94FEA08081E78002EFCD0DCF8C1
:1035E8000800110941EA072120F007200843CCF818
:1035F8000800187818B9C04618780028FCD048F296
:1036080000010120C4F220210870C8BD4FEA080853
:10361800B0F1805012D0B0F1805011D0B0F180508C
:1036280010D0B0F180500FD0B0F180500ED0B0F172
:1036380080500DD0B0F180500CD00DE002207047C2
:1036480004207047082070471020704720207047DA
:103658004020704780207047012070474FEA0808D3
:1036680040F20440C4F20100006810F4E02037D0B2
:10367800B0F580302CD0B0F5803009D0B0F580306E
:103688000ED0B0F5803013D0B0F5803018D01CE0E3
:1036980048F68050C0F25B0070474FEA0808C04601
:1036A80041F60030C0F2B70070474FEA0808C0463C
:1036B80043F20060C0F26E1070474FEA0808C04637
:1036C80046F60040C0F2DC20704700207047C04634
:1036D8004CF2C060C0F22D0070474FEA0808C0469F
:1036E8004EF26030C0F2160070474FEA0808C04634
:1036F80040F20440C8B5C4F201000168FFF7B0FF0A
:103708006FF35F310FB2002F3DD0790B24BF47F420
:1037180070473FB248F2D801C4F220210E783EB972
:1037280041F20002C0F22002D16C92ED190A06E0C3
:1037380041F20002C0F22002D16E92ED210AC1F5D9
:10374800407100EE901AF7EE001AB8EEE01AF0EEAB
:10375800610A40EE010A01EE107AB2EE002AB8EED4
:10376800C11A62EE200A20EE010A80EE200A00EE5D
:10377800900AF8EE600A31EEC00A80EE800ABCEECC
:10378800C00A10EE100AC8BD40F2004246F65A11AF
:10379800C4F201021160116D08430121106548F25D
:1037A8000000C4F22020017070474FEA0808C046A4
:1037B8000A4610B501461046FFF72AFF0246D4B262
:1037C800081C49D0401E1BD0401E3DD0401E0FD0C3
:1037D800401E05D0401E1BD0002010BD4FEA08082F
:1037E80043F20060C0F26E10B0FBF4F010BDC046AA
:1037F800FFF77EFFB0FBF4F010BD4FEA0808C046A3
:1038080042F21070B0FBF4F010BD4FEA0808C04651
:1038180048F23C63C4F2202393F8C80228B102207E
:10382800FFF7B2FF93F8C80250B940F25C70C2F2D9
:1038380000000068B0FBF4F010BD4FEA0808C0466D
:10384800187818B328E0C04648F23C60C4F220203B
:103858000078D8B120E0C04648F23C63C4F2202387
:1038680093F8C40228B10120FFF78EFF93F8C40231
:1038780050B940F26070C2F200000068B0FBF4F08A
:1038880010BD4FEA0808C046187828B94FF4FA4026
:10389800B0FBF4F010BDC0464FF4FA30B0FBF4F0C2
:1038A80010BD4FEA0808C04640F20041C4F20101C9
:1038B80088688968C0F3021001F0E041FFF778BF1B
:1038C80040F20041C4F201018868896800F00700ED
:1038D80001F4E0210903FFF76BBF4FEA0808C0466F
:1038E80040F24840C4F20100006870474FEA0808F7
:1038F80040F20041C4F2010188688968C0F30210EF
:1039080001F4E0010902FFF753BF4FEA0808C04677
:1039180008B5FFF7E5FF014640F24040C4F2010058
:103928000068084008BDC04648F23010C4F22020A4
:10393800007818B102200021FFF73ABF00200146A5
:10394800FFF736BF4FEA080840F20041C4F2010110
:1039580088688968C0F3022001F0E0610901FFF777
:1039680027BF4FEA0808C04640F2004246F65A11FF
:10397800C4F201021160116C08430121106448F27D
:103988000000C4F22020017070474FEA0808C046C2
:1039980040F2004246F65A110128C4F201021160B1
:1039A8000AD048F200010120C4F2202181F80C025B
:1039B80009E04FEA0808C04648F200010120C4F2B5
:1039C800202181F81C02087070474FEA0808C04699
:1039D80040F2004246F65A110120C4F20102116079
:1039E80048F20001C4F2202181F8D800087070471D
:1039F80040F2004246F65A11C4F201021160116BFE
:103A080008430121106348F20000C4F2202001702D
:103A180070474FEA0808C04640F2004246F65A117D
:103A2800C4F201021160116C21EA00000121106446
:103A380048F20000C4F22020017070474FEA0808DD
:103A480040F2004246F65A110128C4F20102116000
:103A58000AD048F200000021C4F2202080F80C129D
:103A680009E04FEA0808C04648F200000021C4F205
:103A7800202080F81C120121017070474FEA0808C5
:103A880040F2004248F2000046F65A11C4F2010220
:103A9800C4F220201160002180F8D81001210170A3
:103AA80070474FEA0808C04640F2004246F65A11ED
:103AB800C4F201021160116B21EA000001211063B8
:103AC80048F20000C4F22020017070470000000096
:103AD80008B52D2000F0C0FE2D2000F0D1FC08BD57
:103AE80044F20041C4F200010888002200F0FF00FF
:103AF80040F42540088048F22000C4F2082080F8ED
:103B0800382002707047C04648F2F4030246C4F2F7
:103B180008234FEA0808C04618790028FCD0501836
:103B280044F20641C4F200010880197800200029F7
:103B380018BF01207047C04680B5074644F20040D0
:103B4800C4F20000B0F800C044F20C42C4F2000213
:103B58000CF0FF0C4CF4254C22F80CCC67B1012F6B
:103B680011D11088090600F0FF0040EA11401080CA
:103B780009E04FEA0808C046108801F0FF0100F488
:103B88007F400143118048F220010020C4F208213F
:103B9800087080BD4FEA080844F20042C4F20002EF
:103BA800118801F0FF0141F42541118053884FF637
:103BB800FF41194008430021508048F22000C4F218
:103BC800082001707047C04644F20043C4F2000365
:103BD8001A88401802F0FF0242F425421A80002198
:103BE800988048F22000C4F2082001707047C0464F
:103BF80044F20042C4F20002118801F0FF0141F4CE
:103C08002541118053884FF6FC7119400843002163
:103C1800508048F22000C4F2082001707047C04666
:103C280010B544F2184480F08000C4F200042070FB
:103C380081F08001617082F08002A27083F08003BD
:103C4800E37010BD4FEA0808014608B52D2000F0C2
:103C580083FC2D2000F09CFD08BD4FEA0808C046F3
:103C6800B0B50F4644F20041C4F20001098844F29D
:103C7800104C012248F25C0EC4F2000C002F01F037
:103C8800FF0141F425412CF8101CC4F2082E0EF84F
:103C9800042C07BF00248EF800408EF80020002472
:103CA8000268BCF800304FF6C07102F03F020B40CA
:103CB8001A43ACF800204268BCF800504CF2FF07E9
:103CC80002F03F0207EA050343EA0223ACF800309A
:103CD8008268BCF8023001F1200702F01F023B4065
:103CE8001A43ACF80220C268BCF802504FF6FF0134
:103CF80002F0070201EA050343EA0223ACF80230A6
:103D08000269BCF8043002F01F0207EA03010A4303
:103D1800ACF804204169BCF804304FF2FF0501F00B
:103D28000F0105EA030242EA0122ACF80420008BE5
:103D3800ACF806000EF83C4CB0BD4FEA0808C04687
:103D480044F20041C4F20001088848F22002C4F29B
:103D5800082200F0FF0040F425400880012082F886
:103D6800380000201070704750B944F20C40C4F27B
:103D78000000008800F0FF0070474FEA0808C046BE
:103D8800012806D144F20C40C4F200000088001259
:103D9800704700207047C04644F2004048F20012C5
:103DA800C4F20000C4F208220088117800F00F0065
:103DB80000294FEA001018BF40F0020092F84010A6
:103DC800002918BF40F0010070474FEA0808C046B4
:103DD80008B5FFF7E1FF48F210020146C4F20822D5
:103DE800107B002808BF21F08001107A002808BF46
:103DF80021F040011079002808BF21F02001107837
:103E0800002808BF21F0100192F8F400002808BF2C
:103E180021F0020192F83401002808BF21F00101C5
:103E2800084608BD4FEA0808B0B548F25001ADF1A0
:103E3800200DC4F20821C0460F78002FFCD044F2B0
:103E48000042C4F20002118A138A01F03F01009176
:103E5800C3F30523B2F812E001930EF01F01538A51
:103E68000291C3F30223B2F814C003930CF01F01AC
:103E7800938A0491C3F30321D28A05916F4606926F
:103E88003CCF3CC097E80E0008B080E80E00B0BDFB
:103E9800014631F00F0010D04FF6F07044F20042A6
:103EA80048F2200C00230840C4F2000240F42540E8
:103EB8001080C4F2082C8CF80030880805D348F22A
:103EC80004120120C4F208221070480805D348F2F1
:103ED80044110120C4F20821087070474FEA08080D
:103EE80030F00F0115D044F20042C4F200021388EA
:103EF80045F6F02141404FF0000C41F00F01194008
:103F080041F4254148F220031180C4F2082383F8C4
:103F180000C0810805D348F204120021C4F2082227
:103F28001170400805D348F244110020C4F208215A
:103F3800087070474FEA080844F20842C4F20002C9
:103F48001018027802F0E30202700278114301703F
:103F580070474FEA0808C04644F20041C4F2000125
:103F68008883888B7047C04644F20041C4F2000140
:103F7800C883C88B7047C04610F0F00F10B516D034
:103F880044F20043C4F200031C88010945F6FF22ED
:103F980041F4B44148F2200C4FF0000E514021404A
:103FA80041F425411980C4F2082C8CF800E08108FE
:103FB80005D348F200120021C4F20822117040080B
:103FC80005D348F240110020C4F20821087010BD42
:103FD800F8B50F4680B940F200544FF4807192A2B0
:103FE800C2F20004204602F0CBF8C5A12046FDF736
:103FF8001FFA0020F8BDC04640F2A041C2F20001FD
:104008000A78022A34D00978012918BF002070D113
:1040180041F61C41C4F2000131F8102C002344F68B
:1040280000451C46C4F2000530224FEA0808C04685
:104038002E78760917D30E88C6F340071FB9C046F5
:104048000E88B608FCD321F80E4C0E88760802D2EA
:104058000E887608FCD331F8106C521E03F1010368
:1040680000F8016BE4D1D8B2F8BD4FEA0808C046A1
:1040780097B940F200544FF48071C5A2C2F200040F
:10408800204602F07DF89EA12046FDF7D1F90020D8
:10409800F8BD4FEA0808C04641F61C4144F6004204
:1040A800C4F20001C4F200020B889B0803D2C04688
:1040B8000B889B08FCD3037821F80E3C13785B0926
:1040C80012D240F200544FF48071BAA2C2F2000436
:1040D800204602F055F88AA12046FDF7A9F90020EC
:1040E800F8BD4FEA0808C0467F1E00F10100DBD189
:1040F8000120F8BD4FEA080841F60041C4F200016A
:104108004889400803D3C04648894008FCD244F691
:104118008340C4F20000007844F60042C4F2000272
:1041280000F0F70082F883008889088840F00100D1
:1041380008801078400902D310784009FCD240F278
:10414800A0410020C2F20001087070474FEA080839
:1041580044F68541C4F2000111F8810C00F0FD001D
:1041680001F8810C11F87F0C40F0020001F87F0C77
:1041780011F8830C00F0FD0001F8830C11F8810C94
:1041880000F0FD0001F8810C11F86D0C00F0FD0045
:1041980001F86D0C11F8690C00F0FD0001F8690CCC
:1041A80011F86B0C40F0020001F86B0C11F8020CCE
:1041B80000F0FB0001F8020C087840F004000870D9
:1041C80011F8020C00F0F70001F8020C087840F032
:1041D8000800087011F8810C00F0EF0001F8810C5C
:1041E80011F87F0C40F0100001F87F0C11F8830CD7
:1041F80000F0EF0001F8830C087800F0FD0008706B
:10420800887840F00200887011F8020C00F0FD0078
:1042180001F8020C087840F0010008704CF2C06008
:10422800C0F22D00FEF750B94552524F523A20695C
:104238006E76616C696420706172616D6574657217
:10424800206461746100C04644F60043B0B5C4F20E
:10425800000393F88110090902D2197849090FD38C
:1042680040F200544FF480715AA2C2F20004204672
:1042780001F086FF22A12046FDF7DAF80020B0BD44
:1042880040F2A042C2F2000217788FB140F2005407
:104298004FF480715BA2C2F20004204601F070FF67
:1042A80017A12046FDF7C4F80020B0BD4FEA080862
:1042B80041F60044C4F2000425884FF6FE712940F7
:1042C800218028BB1978890812D240F200544FF493
:1042D800807157A2C2F20004204601F051FF08A1E4
:1042E8002046FDF7A5F80020B0BD4FEA0808C046F3
:1042F80093F8831001F0FB0183F883100EE0C046A9
:104308002E2E2F626F6C742E63004FEA0808C04689
:1043180093F8831041F0040183F8831093F8831015
:104328000A2441F0080183F883104FEA0808C046C0
:104338009F21C0F20001491EFDD100BF197849092B
:1043480001D2641EF4D11978490909D3002814BF91
:104358000220012010700120B0BD4FEA0808C046B5
:104368000024147093F8830040F200554FF48071D4
:10437800C2F200053BA200F0F70083F8830028464C
:1043880001F0FEFE3D492846FDF752F82046B0BD33
:104398004552524F523A20696E76616C69642070BA
:1043A8006172616D65746572206E756D5F62797496
:1043B800657300C04552524F523A207472616E7351
:1043C8006665722061626F7274656420627920424A
:1043D8004F4C54004552524F523A207265717565E0
:1043E8007374206661696C65642028524551206F9A
:1043F800722041434B207374696C6C20686967684C
:104408002900C0464552524F523A206E6F742069B7
:104418006E2069646C652073746174652C206F70FC
:1044280065726174696F6E20736B69707065640082
:104438004552524F523A206E6F2064617461206178
:104448007661696C61626C652C2072656164206FAD
:104458007065726174696F6E20736B6970706564E2
:1044680000C046C04552524F523A2061636365739B
:10447800732064656E69656400C046C00843000027
:1044880040F2000244F6F901C2F20002C0F2000153
:1044980042F820107047C0460E2821D00F2813D0AC
:1044A8000F2825D9103846F674524109C0F2000287
:1044B80052F821204FF0010C00F01F000CFA00F117
:1044C800116070474FEA08084EF60051CEF200011D
:1044D800486840F00070486070474FEA0808C046D6
:1044E8004EF60051CEF20001486840F00060486086
:1044F80070474FEA0808C0464EF60851CEF2000150
:10450800086070474FEA080802F0FAB84FEA08084E
:1045180046F63C51C0F2000151F8202000204EF62A
:104528000C51CFF6FF70CEF20001104308607047BF
:1045380038B546F6EC438208C0F2000353F822402F
:10454800226800F00300C500A940FF2303FA05F024
:1045580082431143216038BD4EF600532DE9F041E6
:10456800CEF200039C6840F20002C2F20002A242AE
:104578001BD0D3F808C014461327251D04F10806DC
:10458800DCF800E0DCF8048044F80CEBDCF808E028
:1045980045F80C8B7F1E46F80CEB0CF10C0CEFD198
:1045A80040F20004C2F200049C6042F82010BDE80A
:1045B800F0814FEA0808C04602282DD00E281FD0E7
:1045C8000F2811D00F282FD9103846F66C52410900
:1045D800C0F2000252F821204FF0010C00F01F0039
:1045E8000CFA00F1116070474EF60051CEF200014E
:1045F800486840F08060486070474FEA0808C04645
:104608004EF60051CEF20001486840F080504860F4
:1046180070474FEA0808C0464EF60051CEF2000136
:10462800486840F00040486070474FEA0808C046B4
:10463800042835D005282BD0062821D00F2817D0DC
:104648000F2898BF002132D9A0F1100146F65C521C
:104658004809C0F2000252F8200002684FF0010C2D
:1046680001F01F010CFA01F000EA02011FE0C04648
:104678004EF21000CEF20000006800F0010116E0D2
:104688004EF62450CEF20000006800F480210EE0BF
:104698004EF62450CEF20000006800F4003106E027
:1046A8004EF62450CEF20000006800F4803100205D
:1046B800002918BF012070474EF60850CEF20000BE
:1046C800006870474FEA080808B502F01DF8C0B244
:1046D80008BD4FEA0808C0464EF60C5046F63C5155
:1046E800CEF20000C0F2000100680A6800F4E06041
:1046F800824208BF002022D04A68824208BF0120B7
:104708001DD08A68824208BF022018D0CA68824237
:1047180008BF032013D00A69824208BF04200ED0C4
:104728004A69824208BF052009D08A69824208BFC7
:10473800062004D0C969814214BF082007207047A9
:1047480046F6EC428108C0F2000252F821100968CE
:1047580000F00300C00021FA00F0C0B27047C04664
:104768004EF60051CEF20001086940F002000861DF
:1047780070474FEA0808C04608B501F0B1FF0021AC
:10478800002818BF0121084608BD4FEA0808C0469E
:1047980004283DD005282FD0062821D00F2813D073
:1047A8000F283DD9103846F65C524109C0F2000284
:1047B80052F821204FF0010C00F01F000CFA00F114
:1047C800116070474FEA08084EF21001CEF200015E
:1047D800086840F00100086070474FEA0808C046C2
:1047E8004EF60051CEF20001486A40F4802048623B
:1047F80070474FEA0808C0464EF60051CEF2000155
:10480800486A40F40030486270474FEA0808C046DA
:104818004EF60051CEF20001486A40F480304862FA
:1048280070474FEA0808C0464EF60051CEF2000124
:10483800086920F00200086170474FEA0808C0467E
:1048480008B501F055FF0021002818BF01210846CE
:1048580008BD4FEA0808C04604283DD005282FD0D7
:10486800062821D00F2813D00F283DD9103846F636
:1048780064524109C0F2000252F821204FF0010CA5
:1048880000F01F000CFA00F1116070474FEA0808A9
:104898004EF21001CEF20001086820F00100086015
:1048A80070474FEA0808C0464EF60051CEF20001A4
:1048B800486A20F48020486270474FEA0808C046DA
:1048C8004EF60051CEF20001486A20F400304862EA
:1048D80070474FEA0808C0464EF60051CEF2000174
:1048E800486A20F48030486270474FEA0808C0469A
:1048F800FEE700000000000010B546F60864C0F2AC
:10490800000404EB80042068FFF7A6FF2068FFF787
:10491800B7FD10BD4FEA080846F6B452C0F20002CF
:1049280052F8200042885140418070474FEA0808F9
:1049380046F6B452C0F2000252F8202053884FF6CF
:10494800FF7048401840508070474FEA0808C0463A
:1049580046F6B452C0F2000252F8200042881143D1
:10496800418070474FEA080846F6B452C0F2000288
:1049780052F82000027A81F0FF011140017270475D
:1049880046F6B452C0F2000252F82000027A1143EF
:10499800017270474FEA080880B5174646F6B452C8
:1049A800C0F2000252F820C0BCF804007F1E41EAA1
:1049B8000000ACF804001FD07F1E0DD07F1E29D147
:1049C800BCF80A000843ACF80A00BCF80C00014324
:1049D800ACF80C1080BDC046BCF80A204FF6FF703A
:1049E80048401040ACF80A00BCF80C000143ACF891
:1049F8000C1080BD4FEA0808BCF80A000843ACF860
:104A08000A00BCF80C204FF6FF7E8EEA0100104029
:104A1800ACF80C0080BDC04680B5174646F6B452C7
:104A2800C0F2000252F820C0BCF804207F1E4FF6E6
:104A3800FF7080EA010000EA0202ACF804201BD0F3
:104A48007F1E0DD07F1E21D1BCF80A000843ACF8A8
:104A58000A00BCF80C000143ACF80C1080BDC0463D
:104A6800BCF80A201040ACF80A00BCF80C0001435E
:104A7800ACF80C1080BDC046BCF80A201143ACF855
:104A88000A10BCF80C100840ACF80C0080BDC046F9
:104A980046F6B452C0F2000252F8202053894FF66D
:104AA800FF70484003405381938918409081908853
:104AB800014391807047C04646F6B452C0F20002E6
:104AC80052F8202053894FF6FF7048400340538125
:104AD800938903409381938818409080D088084335
:104AE800D08050880143518070474FEA0808C0467B
:104AF80046F6B452C0F2000252F8202053894FF60D
:104B0800FF70484003405381938903409381938801
:104B180003409380D3881943D1805188084050803E
:104B280070474FEA0808C04646F6B452C0F2000281
:104B380052F8202053894FF6FF70484000EA0301DD
:104B48005181918901409181918801409180D1885A
:104B58000840D0807047C04610B546F60864C0F2D9
:104B6800000404EB80042068FFF7F6FC2068FFF7D8
:104B78000FFE10BD4FEA080846F6B453C0F2000312
:104B880053F82030002A1A4606D1138B4FF6FF70CF
:104B98004840184010837047108B014311837047B9
:104BA80046F6B452C0F2000252F82000828B084642
:104BB800104070474FEA080846F6B452C0F20002A7
:104BC80052F82000028808461040014600294FF09C
:104BD800000018BF0120704708B54FF6FF71034663
:104BE800FFF7DEFF014646F6B450C0F2000050F869
:104BF8002320581E092806D90A3818BF002004D1D6
:104C0800508B084008BD907E084008BD4FEA080850
:104C180046F6B452C0F2000252F82000428B11430B
:104C2800418370474FEA080846F6B452C0F20002C2
:104C380052F82020538B4FF6FF704840184050839D
:104C480070474FEA0808C04646F6B452C0F2000260
:104C580052F82020938B4FF6FF70484018409083FD
:104C6800704700000000000041F2000108B5C4F2DE
:104C78000001401A20D0B0F5806015D0B0F58060F2
:104C88000AD0B0F580601DD12320FFF7E5FD232071
:104C9800FFF7F6FB08BDC0462220FFF7DDFD222006
:104CA800FFF7EEFB08BDC0462120FFF7D5FD212008
:104CB800FFF7E6FB08BDC0462020FFF7CDFD20200A
:104CC800FFF7DEFB08BDC04610B5042302464FF4CB
:104CD8005074C4F2002304EB4210185C38B902F196
:104CE8001C0044014FEA0808185D0028FCD0D18157
:104CF80010BD4FEA0808C0464FF0040C80B50122E9
:104D08004101C4F2002C0CF80120018801F4C061B3
:104D1800B1F5C06F0CD000224FF45071C28101EB85
:104D280040111CF8017067B180BD4FEA0808C04601
:104D380055224FF45071C28101EB40111CF80170EB
:104D480037B91C304101C0461CF801000028FBD0CF
:104D580080BD4FEA0808C04610B508240123420167
:104D6800C4F20024A354C18110BD4FEA0808C0460C
:104D78000C2201214001C4F2002211547047C046A0
:104D880043884FF6FC721A40114341807047C04671
:104D98000C2200214001C4F2002211547047C04681
:104DA80041F2000208B5C4F20002801A20D0B0F522
:104DB800806015D0B0F580600AD0B0F580601DD154
:104DC8002320FFF7C9FB2320FFF7E2FC08BDC046FC
:104DD8002220FFF7C1FB2220FFF7DAFC08BDC046FE
:104DE8002120FFF7B9FB2120FFF7D2FC08BDC04600
:104DF8002020FFF7B1FB2020FFF7CAFC08BDC04602
:104E080001464FF450704FF0844200EB4110105CA3
:104E180028B901F11C004301D05C0028FCD0888926
:104E2800C0B270474FEA08084289084610407047E8
:104E3800F8B544014FF0010C04F1844585F800C031
:104E480006880B684FF63F723240134303804F6960
:104E580037B9002285F834208F6947B110E0C04681
:104E68003422C4F2002202F804C08F6947B92C2307
:104E78000022C4F200231A5507E04FEA0808C0468A
:104E88002C22C4F2002202F804C00A69C2B1521EE0
:104E98000AD0521E19D13C22C4F20022121982F8FB
:104EA80000C002F804CC10E03C22C4F2002212191F
:104EB80082F800C0002302F8043C06E04FEA080824
:104EC8003C230022C4F200231A558A88C280CC6889
:104ED8000B6A8A6802EB041203EB02130381CA69A6
:104EE80003884EF6C10E0EEA03010A4302806046AB
:104EF800F8BD4FEA0808C0460E3070474FEA080868
:104F08000C3070474FEA0808828B084610407047FB
:104F180008B503210346FFF7F7FF598B4A0838BF46
:104F280020F00100890838BF20F0020019888A099A
:104F380038BF20F02000490938BF20F0100008BD14
:104F48004FF0844200214001115470474FEA08088D
:104F5800438B01F00F021A434283028801F03001AB
:104F6800114301807047C0464FF08442012140013F
:104F7800115470474FEA080810B5448B4FF6FF7379
:104F880001F00F025A4022404283028801F03001AA
:104F98004B401340038010BD838B4FF6FF72514086
:104FA800194081837047000008B51020FFF754FCB2
:104FB8001020FFF765FA08BD40F6000146F65A10C2
:104FC800C4F201010860704740F600010020C4F2F5
:104FD800010108607047C04608B50246FFF7ECFFBC
:104FE800012A05D0A4210120C4F22121087004E07F
:104FF800A4210020C4F221210870FFF7E5FF08BDB5
:1050080008B50246FFF7D8FF40F60400C4F20100D5
:10501800016862F3C5010160FFF7D6FF08BDC0460D
:1050280008B50246FFF7C8FF012A05D084210120F0
:10503800C4F22121087004E084210020C4F2212157
:105048000870FFF7C1FF08BD014608B51020FFF73B
:1050580083FA1020FFF79CFB08BD4FEA0808C046FA
:10506800A420C4F2212001780020002908BF0120D3
:1050780070474FEA0808C04640F63800C4F20100FD
:10508800006870474FEA080840F60400C4F20100BF
:105098000068C0F3C20070478420C4F22120017860
:1050A8000020002908BF012070474FEA0808C046C1
:1050B80008B5FFF781FFA0210020C4F22121087064
:1050C800FFF782FF08BDC04608B5FFF775FF40F23D
:1050D80084610120C4F221210870FFF775FF08BD23
:1050E80008B50246FFF768FF012A09D09820002179
:1050F800C4F2212001714FF0010E80F800E007E0B2
:1051080040F60001C4F20101486840F0C000486060
:10511800FFF75AFF08BDC04608B5FFF74DFF8821C5
:105128000120C4F221210870FFF74EFF08BDC046D8
:1051380008B5FFF741FF80210020C4F22121087043
:10514800FFF742FF08BDC04608B5FFF735FFA021AD
:105158000120C4F221210870FFF736FF08BDC046C0
:1051680008B5FFF729FF40F284610020C4F221212D
:105178000870FFF729FF08BD08B5FFF71DFF982144
:105188000020C4F221210870FFF71EFF08BDC046A9
:1051980008B5FFF711FF88210020C4F2212108700B
:1051A800FFF712FF08BDC04608B5FFF705FF8021CD
:1051B8000120C4F221210870FFF706FF08BDC04690
:1051C80008B5FFF7F9FE40F284710020C4F22121EE
:1051D8000870FFF7F9FE08BD70474FEA0808C04697
:1051E80008B5FEF7F5FDFEF7C7FE08BD4FEA08084B
:1051F80008B50220FFF7F0FC01460220FFF724FD66
:1052080008BD4FEA0808C04608B50120FFF7E4FCCE
:1052180001460120FFF718FD08BD4FEA0808C046FF
:1052280070B540F2764442F2FC214EF61055C2F2B7
:105238000004C5F6FF71CEF2000520786A5AE8B975
:105248004FF00076D6F85408C0688047D6F8600852
:10525800C26B012141F20000C4F200009047D6F869
:105268006008026B012141F20000C4F2000090477F
:10527800296820780D2241F002012960401CC0B243
:105288002070D0B2FCF718FD70BD4FEA0808C04680
:1052980070474FEA0808C046012008B50146FFF7E5
:1052A8003BFB40F6180040F27742C0F20020C2F201
:1052B800000201681078496EC0F1010010703220B8
:1052C800884708BD4FEA08082DE9F0414FF00075FE
:1052D80005F604042068806EADF1280D8047D5F8E6
:1052E8000428D26E0F460646904770084CD3EC202F
:1052F800102100F08DFA80460021EC2000F088FA99
:1053080005462068416C01208847A5EB0805372130
:10531800A0EB080000EE105A414300EE901AB8EED8
:10532800400AF8EE600A80EE800A4FF0000CC4F2E2
:10533800002C01EE10CA46F2666EF3EE0E0A30EE4D
:10534800800A8DED000AC3F6E67E00EE90EA9DED38
:10535800000A00EE801A8DED011A009801F07DFA1E
:1053680002460B4602A814A101F0B6F840F2005814
:10537800C2F200084FF4807102AA404600F000FF14
:1053880010A14046FCF754F80225002005EA060162
:105398003840002808BF00290AD001200146FFF73D
:1053A800BBFA2068416C284688472068006F804710
:1053B8000AB0BDE8F081C046252E3266C2B0430D62
:1053C8000A00C0462E2E2F6973722E6300C02DE985
:1053D800F0411C4615468C4208BF854282BF002317
:1053E8000022E5E0002C08BF002D0AD100290EBFDD
:1053F80000286FF000006FF0000100F0E1F8BDE850
:10540800F0815FF000085FF0000E002C08BF8D42AD
:105418009CBF2C1C0025070C47EA01470E0CB44220
:1054280008BFBD429EBF5FEA044444EA15445FEAF0
:105438000545070A47EA01670E0AB44208BFBD429C
:105448009EBF5FEA042444EA15645FEA052547081D
:1054580047EAC1774E08B44208BFBD4200F29380C4
:10546800870847EA81778E08B44208BFBD427CD8D6
:10547800C70847EA4177CE08B44208BFBD4266D89C
:10548800070947EA01770E09B44208BFBD4250D860
:10549800470947EAC1674E09B44208BFBD423AD836
:1054A800870947EA81678E09B44208BFBD4224D8FC
:1054B800C70947EA4167CE09B44208BFBD420DD8C3
:1054C800E60146EA5566EF01B14208BFB84201D38A
:1054D800C01BB14158EB08085EEB0E0EA60146EA68
:1054E80095664FEA8517B14208BFB84201D3C01B81
:1054F800B14158EB08084EEB0E0E660146EAD56638
:105508006F01B14208BFB84201D3C01BB14158EB8B
:1055180008084EEB0E0E260146EA15762F01B14219
:1055280008BFB84201D3C01BB14158EB08085EEB75
:105538000E0EE60046EA5576EF00B14208BFB842C3
:1055480001D3C01BB14158EB08084EEB0E0EA60064
:1055580046EA9576AF00B14208BFB84201D3C01BF6
:10556800B14158EB08084EEB0E0E660046EAD576B8
:105578006F00B14208BFB84201D3C01BB14158EB1C
:1055880008085EEB0E0EA14208BFA84201D3401BDB
:10559800A14158EB08085EEB0E0EA34208BFAA42D1
:1055A8003EBF2D0A45EA0465240A89D3734642465C
:1055B8001E4617460B46024631463846BDE8F0817E
:1055C8007047000000000000F0B544F60C054FF4E9
:1055D800B540C4F20005ADF11C0D2880FDF730FA86
:1055E800FDF7FAFBFCF7F4FDFCF7F2FE00240820B7
:1055F8000C210A2200902346019440F2DF700294A5
:10560800FCF7A2FFFEF7A4FD40F61C00C0F2002044
:105618000068816D204688470646FDF7A1FA0446D2
:10562800FDF72EF80C210091032124A230230191CB
:1056380020210291A10A40F2005403964FF480768B
:105648000496C2F20004059131460690204600F007
:1056580097FD43A739462046FBF7EAFE43A03946A3
:10566800FBF7E6FEFDF7A0F941F2FF10C0F27A0061
:10567800401EFDD100BF95F8F70380F0100085F8B3
:10568800F70395F8560480F0080085F8560495F855
:10569800560480F0040085F856040120FCF7A4FFA6
:1056A800034631463BA2204600F06AFD20462CA165
:1056B800FBF7BEFED8E7C046FEE7C0460D0A0D0A56
:1056C8004D535034333220696E697469616C697A5C
:1056D8006564210D0A4D434C4B3A202575204D48F1
:1056E8007A0D0A48534D434C4B3A202575204D48B6
:1056F8007A0D0A534D434C4B3A202575204D487A74
:105708000D0A41434C4B3A202575206B487A0D0A07
:10571800466C61736820776169742073746174657D
:10572800733A2025750D0A466C6173682073697A8F
:10573800653A202575206B420D0A436F6465207316
:10574800697A653A202575206B420D0A52657365A2
:105758007420736F757263653A2025730D0A00C053
:105768002E2E2F6D61696E2E6300C04650726573D0
:105778007320616E79206B657920746F206F706576
:105788006E2074686520636F6E736F6C652E2E2EA5
:1057980000C046C05254433A202573000000000060
:1057A80050B943F20001CEF20401886820F00100EC
:1057B800886070474FEA080843F20001CEF20401FE
:1057C800886840F00100886070474FEA0808C046C2
:1057D80050B943F20001CEF20401886820F00200BB
:1057E800886070474FEA080843F20001CEF20401CE
:1057F800886840F00200886070474FEA0808C04691
:1058080043F2000146F60110CEF204010860704729
:1058180041F200020918C0F22002505A7047C046EF
:1058280043F21000CEF20400006870474FEA0808FF
:1058380043F20400CEF20400006870474FEA0808FB
:1058480043F22000CEF20400006870474FEA0808CF
:1058580043F20002CEF204029169490CFCD391692B
:10586800084390617047C04643F20002CEF204023A
:105878005169490CFCD340F0010050617047C046A3
:1058880043F20002CEF20402D16821EA0000D0609F
:1058980070474FEA0808C04643F20002CEF20402FD
:1058A800516808435060704743F20001CEF204018A
:1058B800086B40F00100086370474FEA0808C046CB
:1058C80043F20002CEF204029169490CFCD39169BB
:1058D80021EA00009061704743F20001CEF2040112
:1058E8004A69520CFCD3801E17D0801E13D0001FAB
:1058F8000FD008380BD0103807D0203803D04038E4
:105908000FD17E200AE03E2008E01E2006E00E208F
:1059180004E0062002E0022000E0002040F0010040
:10592800486170474FEA080843F20002CEF20402C9
:10593800D1680843D060704743F20002CEF20402F7
:10594800516821EA0000506070474FEA0808C046D5
:1059580043F20001CEF20401086B20F00100086355
:1059680070472DE9FC4F83F0004301E02DE9FC4F1F
:105978001F03FF0847EAD2574FEA42284FEA430974
:105988005FEA595906D147EA080A1CBF00210020DE
:10599800BDE8FC8F57F000575FF4E06E1EF1FF0E74
:1059A800F14505D14FF00000190D0905BDE8FC8F40
:1059B800002B05D55FF0000AD8F100086AEB07074D
:1059C8000C03E40844EAD0544FEA40254FEA410664
:1059D800760D08D144EA050A19BF00210020191CD8
:1059E800101CBDE8FC8F44F00054764504D100201B
:1059F800090D0905BDE8FC8F002904D55FF0000AF0
:105A08006D426AEB0404B6EB090E08D5A2463C4683
:105A18005746AA464546D046CEF1000E4E46BEF140
:105A2800360F5CBF4FF0000B23E0BEF1000F04BF40
:105A38004FF0000B1AE0CEF1390ABAF120092EBF57
:105A480008FA09FB07FA0AFB4BEA080BDEF1200A01
:105A580007FA0AFA38BFBA4647FA0EF72DBF28FAEE
:105A68000EF8AEF1200E4AFA0EF8D04415EB0805F0
:105A78007C4154EA050A02BF00210020BDE8FC8FE2
:105A8800002C58BF4FF0000A06D55FF0010A5FF0FE
:105A9800000E6D426EEB0404A6F101066D00644130
:105AA800FAD515F4806E11D005F480794BEA090B0C
:105AB80015F5806554F1000428BF761C0BD205F457
:105AC80000795BEA090B08BF25F4006525F4E06559
:105AD8006D0044EB0404B61CDEBF00210020BDE8C5
